:020000040800F2
:1000000050060020650100083D2F00083F2500082C
:10001000392F000875020008AF3700080000000003
:100020000000000000000000000000000D3100088A
:100030007902000800000000792F00080F31000845
:100040007F0100087F0100087F0100087F01000890
:100050007F0100087F0100087B0200087F01000883
:100060007F0100087F0100087F0100087F01000870
:100070007F0100087F0100087F0100087F01000860
:100080007F0100087F0100087F0100087F01000850
:100090007F0100087F0100087F0100087F01000840
:1000A0007F010008213200087F0100087F0100085D
:1000B0007F0100087F0100087F0100087F01000820
:1000C0007F0100087F0100087F0100087F01000810
:1000D0007F0100087F0100087F0100087F01000800
:1000E0007F0100087F0100087F0100080000000078
:1000F0000000000000000000000000000000000000
:1001000000000000000000007F0100087F010008DF
:100110007F0100087F0100087F0100087F010008BF
:100120007F0100087F0100087F0100087F010008AF
:100130007F0100087F0100087F0100087F0100089F
:100140007F0100087F0100087F0100087F0100088F
:10015000DFF80CD000F07CF800480047793C00083C
:10016000500600200648804706480047FEE7FEE7A5
:10017000FEE7FEE7FEE7FEE7FEE7FEE7FEE7FEE757
:10018000BD31000851010008421C10F8011B002974
:10019000FBD1801A704780EA010210B502F00043DB
:1001A000400022D04A001FD0010E01EB1261C0F3C3
:1001B0005600C2F3560240F4000042F40002A0FBD5
:1001C000022000047F39140400D0401C50EA124081
:1001D00001D44000491EC2B20C0604EBD010401CF2
:1001E0004008802A02D003E0002010BD20F001006A
:1001F000002900DA0020184310BD20F00040C10D96
:10020000C0F3160040F400007F2901DA0020704797
:10021000962903DCC1F19601C840704796398840A1
:10022000704730B50B46014600202022012409E02A
:1002300021FA02F59D4205D303FA02F5491B04FA9F
:1002400002F52844151EA2F10102F1DC30BD0000C8
:10025000064C074D06E0E06840F0010394E8070013
:1002600098471034AC42F6D3FFF776FFE84F00080A
:100270000850000800BFFEE7704710B5012000F0ED
:1002800013F803F065FD10BD00BFFEE731B5002493
:1002900000F0ACF9044600BF00F0A8F9001B00997B
:1002A0008842F9D338BD704710B504460448006849
:1002B000204020B1024804602046FFF7F4FF10BD43
:1002C000140401402DE9F8470346002400200025CE
:1002D0008446002700226EE14FF0010808FA02F47C
:1002E000D1F8008008EA0400A0427DD1DFF8D0A256
:1002F000D1F80480A8EB0A09D0453AD014DCB8F153
:10030000030F50D009DCB8F1000F31D0B8F1010F64
:100310001CD0B8F1020F49D120E0B8F1110F18D06C
:10032000B8F1120F42D11EE0B9F5881F25D006DCC6
:10033000B9F5803F20D0B9F5801F37D11AE0B9F563
:10034000001F18D0B9F5041F30D117E0D1F80CC048
:100350002DE0D1F80C8008F1040C28E0D1F80C80D5
:1003600008F1080C23E0D1F80C8008F10C0C1EE019
:1003700000BF00BF00BF00BF00BF00BFD1F80880B2
:10038000B8F1000F02D14FF0040C0BE0D1F8088057
:10039000B8F1010F03D14FF0080C1C6102E04FF0DF
:1003A000080C5C6103E04FF0000C00E000BF00BFF0
:1003B000FF2801D8984601E003F104084646FF28CB
:1003C00002D84FEA820803E0A2F108084FEA880841
:1003D0004746D6F800804FF00F0909FA07F928EAD6
:1003E00009080CFA07F900E088E048EA0908C6F8AD
:1003F0000080D1F8048008F08058B8F1805F7DD18A
:1004000000BFDFF8C081D8F8188048F00108DFF895
:10041000B491C9F81880C846D8F8188008F00108C7
:10042000CDF8008000BF00BF4FEAB9384FEA92090B
:1004300058F829504FEA82784FEA18794FF00F08A0
:1004400008FA09F825EA0805DFF87C81434502D15E
:100450004FF0000816E0DFF87481434502D14FF0F9
:1004600001080FE0DFF86881434502D14FF0020830
:1004700008E0DFF86081434502D14FF0030801E056
:100480004FF004084FEA82794FEA197908FA09F81F
:1004900048EA0505DFF840814FEA920948F82950FB
:1004A000D1F8048008F48038B8F5803F0AD1DFF82D
:1004B0002C81D8F8008048EA0008DFF82091C9F8BC
:1004C000008009E0DFF81481D8F8008028EA0008ED
:1004D000DFF80891C9F80080D1F8048008F40038EA
:1004E000B8F5003F10D1DFF8F48008F10408D8F81F
:1004F000008048EA0008DFF8E49000E05AE009F1E3
:100500000409C9F800800DE0DFF8D08008F1040884
:10051000D8F8008028EA0008DFF8C09009F1040943
:10052000C9F80080D1F8048008F48018B8F5801F5D
:100530000ED1DFF8A88008F10808D8F8008048EA52
:100540000008DFF8989009F10809C9F800800DE06B
:10055000DFF8888008F10808D8F8008028EA000849
:10056000DFF8789009F10809C9F80080D1F8048013
:1005700008F40018B8F5001F0ED1DFF8608008F10C
:100580000C08D8F8008048EA0008DFF8509009F11C
:100590000C09C9F800800DE0DFF8408008F10C0874
:1005A000D8F8008028EA0008DFF8309009F10C093B
:1005B000C9F80080521C102AFFF48EAEBDE8F887FF
:1005C000000011100010024000080140000C014022
:1005D00000100140001401400800014000040140E7
:1005E0000AB1016101E00B04036170470148006832
:1005F000704700000400002002480068401C0149C8
:10060000086070470400002010B50848006840F0FA
:10061000100006490860032000F0AEF8002000F04A
:1006200007F800F017F8002010BD0000002002407D
:1006300070B5044600F000FA4FF47A71B0FBF1F5A2
:10064000284601F066FB00222146501E00F055F8B6
:10065000002070BD08B500BF1F48806940F0010050
:100660001D4988610846806900F00100009000BFC4
:1006700000BF032000F080F8002211466FF00B004D
:1006800000F03BF8002211466FF00A0000F035F848
:10069000002211466FF0090000F02FF800221146E9
:1006A000501F00F02AF800221146101F00F025F814
:1006B00000221146901E00F020F800221146501E24
:1006C00000F01BF80548406820F0E06040F08060D2
:1006D0000249486008BD00000010024000000140CF
:1006E00000BF00F01F02012191404209920002F177
:1006F000E022C2F8001100BF70472DE9F05F80468C
:100700000D461646002702F01BFC074639462A46CE
:10071000334601F00700C0F1070ABAF1040F02D90D
:100720004FF0040A01E0C0F1070AD14600F1040AC3
:10073000BAF1070F02D24FF0000A01E0A0F1030A5C
:10074000D4464FF0010A0AFA09FAAAF1010A0AEAA4
:10075000020A0AFA0CFA4FF0010B0BFA0CFBABF190
:10076000010B0BEA030B4AEA0B042146404602F058
:10077000EFFBBDE8F09F000000BF00F00702064B52
:1007800019684FF6FF031940044B0B4343EA02215B
:10079000014B196000BF70470CED00E00000FA0546
:1007A00070B504460D4600269F48006800F007001B
:1007B000A8420ED29C48006820F0070028439A49BE
:1007C00008600846006800F00700A84201D0012038
:1007D00070BD207800F00200022807D193484068DD
:1007E00020F0F000A168084390494860207800F0AC
:1007F000010000287CD0606801282DD12020010351
:1008000091FAA1F1B1FA81F108430121B1EB601F26
:1008100002D1864800680FE02020010391FAA1F17F
:10082000B1FA81F108430221B1EB601F02D17F4888
:10083000006A01E07D48406A20210A0392FAA2F290
:10084000B2FA82F2114301F01F02012191400840E7
:10085000002860D10120BBE7606802282CD120204D
:10086000010591FAA1F1B1FA81F108430121B1EB3F
:10087000601F02D16D4800680FE02020010591FA49
:10088000A1F1B1FA81F108430221B1EB601F02D15D
:100890006648006A01E06548406A20210A0592FA2C
:1008A000A2F2B2FA82F2114301F01F02012191403B
:1008B000084078BB01208BE72020022191FAA1F1AA
:1008C000B1FA81F108430121B1EB601F02D1574811
:1008D000006810E02020022191FAA1F1B1FA81F123
:1008E00008430221B1EB601F03D15048006A02E0C7
:1008F00054E04E48406A2021022292FAA2F2B2FA53
:1009000082F2114301F01F0201219140084008B911
:1009100001205DE7FFE74548406820F0030061687B
:10092000084342494860FFF761FE064660680128B7
:1009300010D108E0FFF75AFE801B41F2883188424F
:1009400001D9032044E73948406800F00C0004282E
:10095000F0D123E06068022810D108E0FFF746FEDE
:10096000801B41F28831884201D9032030E72F48AB
:10097000406800F00C000828F0D10FE008E0FFF715
:1009800035FE801B41F28831884201D903201FE7E0
:100990002648406800F00C000028F0D1224800688A
:1009A00000F00700A8420ED91F48006820F0070099
:1009B00028431D4908600846006800F00700A84267
:1009C00001D0012004E7207800F00400042807D1BA
:1009D0001648406820F4E060E16808431349486025
:1009E000207800F00800082808D11048406820F45A
:1009F0006050216940EAC1000C49486000F04EF89F
:100A00000A49496801F0F001F02292FAA2F2B2FA22
:100A100082F2D140064A515CC84006490860002075
:100A2000FFF706FE0020D3E600200240001002403F
:100A3000003E0008080000200148006870470000E0
:100A40000800002000B5FFF7F7FF0749496801F4E7
:100A5000E0614FF4E06292FAA2F2B2FA82F2D1407F
:100A6000024A515CC84000BD00100240103E000820
:100A700000B5FFF7E1FF0749496801F460514FF401
:100A8000605292FAA2F2B2FA82F2D140024A515C6A
:100A9000C84000BD00100240103E00082DE9F043A0
:100AA00087B00FF22418D8E9007CD8F80880CDE987
:100AB00005C804970FF21C1CDCE90089DCE9027C04
:100AC000CDE9027CCDE90089002200240023002129
:100AD000002000250026434F7A6802F00C07002F03
:100AE0006BD0042F02D0082F66D101E03E4866E0AB
:100AF00002F470174FF4701C9CFAACFCBCFA8CFC2E
:100B000027FA0CF70DF1100C1CF8071002F48037CF
:100B1000AFB3344FFF6A07F00F074FF00F0C9CFA8A
:100B2000ACFCBCFA8CFC27FA0CF71DF807402D4FE3
:100B3000FF6A07F480371FB32A4FFF6A07F0F007F8
:100B40004FF0F00C9CFAACFCBCFA8CFC27FA0CF7CA
:100B50007D1C244FFF6A07F470674FF4706C9CFA99
:100B6000ACFCBCFA8CFC27FA0CF7BE1C1E4FB7FB82
:100B7000F5F77743B7FBF4F707FB01F305E016E061
:100B8000194FB7FBF4F707FB01F34FF450174FF47D
:100B9000701C9CFAACFCBCFA8CFC27FA0CF70DF12B
:100BA000100C1CF807708F4204D15B0802E00F4F55
:100BB00001FB07F3184602E000BF0D4800BF00BF6D
:100BC00007B0BDE8F083000000000405060708092F
:100BD0000000000D0102030405060708090A0B0CBA
:100BE0000D0E0F100010024040787D0100093D00FD
:100BF00000127A0038B504460025207800F0010084
:100C000000287CD0F848406800F00C0004280CD084
:100C1000F548406800F00C00082837D1F2484068D9
:100C200000F48030B0F5803F30D12020010391FAEC
:100C3000A1F1B1FA81F108430121B1EB601F02D1AA
:100C4000E94800680FE02020010391FAA1F1B1FA10
:100C500081F108430221B1EB601F02D1E248006A32
:100C600001E0E148406A20210A0392FAA2F2B2FAB6
:100C700082F2114301F01F02012191400840002837
:100C8000BFD0A06800283AD1012038BD00BFA068BD
:100C9000B0F5803F06D1D448006840F48030D24996
:100CA000086028E0A06858B9CF48006820F4803078
:100CB000CD4908600846006820F4802008601AE0EA
:100CC000A068B0F5A02F0BD1C748006840F4802081
:100CD000C54908600846006840F4803008600AE0B2
:100CE000C148006820F48030BF49086008460068A9
:100CF00020F48020086000BFA068C8B300E06FE067
:100D0000FFF774FC054606E0FFF770FC401B642803
:100D100001D90320B9E72020010391FAA1F1B1FA2A
:100D200081F108430121B1EB601F02D1AE48006898
:100D30000FE02020010391FAA1F1B1FA81F10843FB
:100D40000221B1EB601F02D1A748006A01E0A6486A
:100D5000406A20210A0392FAA2F2B2FA82F2114307
:100D600001F01F020121914008400028CCD037E05B
:100D7000FFE7FFF73BFC054606E0FFF737FC401BAB
:100D8000642801D9032080E72020010391FAA1F112
:100D9000B1FA81F108430121B1EB601F02D1924801
:100DA00000680FE02020010391FAA1F1B1FA81F16E
:100DB00008430221B1EB601F02D18B48006A01E0B9
:100DC0008948406A20210A0392FAA2F2B2FA82F21A
:100DD000114301F01F020121914008400028CCD1AD
:100DE000207800F0020002284ED17F48406800F0D1
:100DF0000C0050B17C48406800F00C00082844D139
:100E00007948406800F4803078BB2020022191FAB4
:100E1000A1F1B1FA81F108430121B1EB601F02D1C8
:100E2000714800680FE02020022191FAA1F1B1FA87
:100E300081F108430221B1EB601F02D16A48006AC8
:100E400001E06948406A2021022292FAA2F2B2FA35
:100E500082F2114301F01F0201219140084028B1A4
:100E60006069012802D001200FE70EE05E480068AB
:100E700020F0F800F82292FAA2F2B2FA82F2A16906
:100E8000914008435849086091E06069F0B301203F
:100E900090FAA0F1B1FA81F1544A42F82100FFF72B
:100EA000A5FB054606E0FFF7A1FB401B022801D980
:100EB0000320EAE62020022191FAA1F1B1FA81F1A2
:100EC00008430121B1EB601F02D1474800680FE0E1
:100ED0002020022191FAA1F1B1FA81F10843022107
:100EE000B1EB601F02D14048006A01E03E48406A11
:100EF0002021022292FAA2F2B2FA82F2114301F008
:100F00001F02012191400840002800E00FE0CAD0F4
:100F10003548006820F0F800F82292FAA2F2B2FAFE
:100F200082F2A169914008432F4908603FE0002008
:100F3000012191FAA1F1B1FA81F12C4A42F8210084
:100F4000FFF754FB054606E0FFF750FB401B022865
:100F500001D9032099E62020022191FAA1F1B1FAEA
:100F600081F108430121B1EB601F02D11E480068E6
:100F70000FE02020022191FAA1F1B1FA81F108439A
:100F80000221B1EB601F02D11748006A01E0164848
:100F9000406A2021022292FAA2F2B2FA82F21143AE
:100FA00001F01F020121914008400028CCD1207897
:100FB00000F0080008284BD1E069A8B3012191FA9C
:100FC000A1F0B0FA80F0094A02EB8000C0F880146A
:100FD000FFF70CFB05460BE0FFF708FB401B022860
:100FE00006D9032051E600000010024000004242F2
:100FF0006020022191FAA1F1B1FA81F108430121A7
:10100000B1EB601F02D1FE48006810E060200221B1
:1010100091FAA1F1B1FA81F108430221B1EB601F0D
:1010200003D1F748006A02E013E0F548406A602106
:10103000022292FAA2F2B2FA82F2114301F01F02E6
:101040000121914008400028C6D00120FFF71EF979
:1010500041E00020012191FAA1F1B1FA81F1E94AC0
:1010600002EB8101C1F88004FFF7C0FA054606E0F3
:10107000FFF7BCFA401B022801D9032005E66020D7
:10108000022191FAA1F1B1FA81F108430121B1EBFA
:10109000601F02D1DA4800680FE06020022191FA57
:1010A000A1F1B1FA81F108430221B1EB601F02D135
:1010B000D348006A01E0D248406A6021022292FAD5
:1010C000A2F2B2FA82F2114301F01F020121914013
:1010D00008400028CCD1207800F00400042875D105
:1010E00000BFC748C06940F08050C549C861084684
:1010F000C06900F08050009000BF00BFC248006887
:1011000040F48070C0490860FFF770FA054606E0B9
:10111000FFF76CFA401B642801D90320B5E5BA48F3
:10112000006800F480700028F2D000BF2069012818
:1011300006D1B348006A40F00100B149086227E0D7
:10114000206958B9AE48006A20F00100AC49086235
:101150000846006A20F00400086219E020690528AA
:101160000BD1A748006A40F00400A5490862084670
:10117000006A40F0010008620AE0A148006A20F01D
:1011800001009F4908620846006A20F004000862D6
:1011900000BF2069D0B3FFF729FA054608E0FFF742
:1011A00025FA401B41F28831884201D903206CE5C1
:1011B0004020022191FAA1F1B1FA81F10843012105
:1011C000B1EB601F03D18E48006810E058E040206A
:1011D000022191FAA1F1B1FA81F108430221B1EBA8
:1011E000601F02D18648006A01E08548406A4021BC
:1011F000022292FAA2F2B2FA82F2114301F01F0225
:101200000121914008400028C9D039E0FFE7FFF7ED
:10121000EDF9054608E0FFF7E9F9401B41F2883196
:10122000884201D9032030E54020022191FAA1F142
:10123000B1FA81F108430121B1EB601F02D170487E
:1012400000680FE04020022191FAA1F1B1FA81F18A
:1012500008430221B1EB601F02D16948006A01E036
:101260006748406A4021022292FAA2F2B2FA82F260
:10127000114301F01F020121914008400028CAD10A
:10128000E06A00287ED05E48406800F48030B0F507
:10129000803F0ED15A48406800F00C00082808D161
:1012A0005748C06A00F48030B0F5803F01D101207A
:1012B000EBE4E06A022866D15148006800F08050F3
:1012C00040B14F48C06A00F0F001606B814201D02C
:1012D0000120DAE400214FF0806090FAA0F0B0FA2B
:1012E00080F0484A42F82010FFF780F9054606E0F2
:1012F000FFF77CF9401B642801D90320C5E42020B6
:10130000810591FAA1F1B1FA81F108430121B1EB14
:10131000601F02D13A4800680FE02020810591FA51
:10132000A1F1B1FA81F108430221B1EB601F02D1B2
:101330003348006A01E03248406A20218A0592FA67
:10134000A2F2B2FA82F2114301F01F020121914090
:1013500008400028CCD12A48C06A20F0F000616B18
:1013600008432749C8620846C06A20F47060216BB0
:1013700008432349C8620120810691FAA1F1B1FA1C
:1013800081F101E089E041E01E4A42F82100FFF7C7
:101390002DF9054606E0FFF729F9401B642801D91D
:1013A000032072E42020810591FAA1F1B1FA81F1C4
:1013B00008430121B1EB601F02D1114800680FE022
:1013C0002020810591FAA1F1B1FA81F108430221AF
:1013D000B1EB601F02D10A48006A01E00848406A88
:1013E00020218A0592FAA2F2B2FA82F2114301F0A8
:1013F0001F020121914008400028CCD04DE00000A0
:101400000010024000004242007000409C48C06A48
:1014100020F480309A49C86200204FF0806191FA30
:10142000A1F1B1FA81F1974A42F82100FFF7DEF805
:10143000054606E0FFF7DAF8401B642801D90320CF
:1014400023E42020810591FAA1F1B1FA81F108434A
:101450000121B1EB601F02D1894800680FE0202014
:10146000810591FAA1F1B1FA81F108430221B1EBB2
:10147000601F02D18248006A01E08148406A202151
:101480008A0592FAA2F2B2FA82F2114301F01F0227
:101490000121914008400028CCD1206A002872D058
:1014A0007748406800F00C0008286DD0206A0228B8
:1014B0006BD100204FF0807191FAA1F1B1FA81F166
:1014C000704A42F82100FFF791F8054606E0FFF761
:1014D0008DF8401B022801D903201BE420200105C0
:1014E00091FAA1F1B1FA81F108430121B1EB601F3A
:1014F00002D1634800680FE02020010591FAA1F1B4
:10150000B1FA81F108430221B1EB601F02D15C48BE
:10151000006A01E05A48406A20210A0592FAA2F2C4
:10152000B2FA82F2114301F01F02012191400840FA
:101530000028CCD1606AB0F5803F0DD15048C06A18
:10154000616808434E49C8620846C06A20F00F002F
:10155000E16808434A49C862D4E909010843484997
:10156000496821F47411084345494860012108067F
:1015700090FAA0F0B0FA80F0424A42F82010FFF74B
:1015800035F8054609E079E076E033E0FFF72EF81C
:10159000401B022801D9032066E42020010591FAAE
:1015A000A1F1B1FA81F108430121B1EB601F02D131
:1015B000334800680FE02020010591FAA1F1B1FA4B
:1015C00081F108430221B1EB601F02D12C48006A6F
:1015D00001E02B48406A20210A0592FAA2F2B2FAF1
:1015E00082F2114301F01F020121914008400028BE
:1015F000CCD043E000204FF0807191FAA1F1B1FA14
:1016000081F1204A42F82100FEF7F0FF054606E08E
:10161000FEF7ECFF401B022801D9032024E4202020
:10162000010591FAA1F1B1FA81F108430121B1EB71
:10163000601F02D1124800680FE02020010591FAD6
:10164000A1F1B1FA81F108430221B1EB601F02D18F
:101650000B48006A01E00A48406A20210A0592FA14
:10166000A2F2B2FA82F2114301F01F02012191406D
:1016700008400028CCD101E001201AE4002018E441
:101680000010024000004242014691F851007047AC
:1016900010B504460CB9012010BD94F8510010B9E2
:1016A000204600F03BF8022084F8510020680068D2
:1016B00020F0400021680860D4E901010843E16896
:1016C00008432169084361690843218B01F40071D3
:1016D0000843E1690843216A0843A16A0843216875
:1016E00008600421A06901EA1040616A084321688A
:1016F00048602168E06A08612068C06920F40060E1
:101700002168C8610020044908706065012084F8E0
:1017100051000020C0E700000000002010B586B096
:1017200004462A492068884221D100BF28488069A0
:1017300040F48050264988610846806900F4805052
:10174000019000BF00BFA020029002200390032060
:10175000059002A91F48FEF7B5FD40200290002029
:101760000390049002A91B48FEF7ACFD2CE01A4937
:101770002068884228D100BF1548C06940F4004065
:101780001349C8610846C06900F40040019000BFD9
:1017900000BF4FF4A0500290022003900320059058
:1017A00002A90E48FEF78EFD4FF400600290002063
:1017B0000390049002A90948FEF784FD0848406898
:1017C00040F080500649486006B010BD003001402E
:1017D0000010024000080140003C004000100140A1
:1017E00000000140F8B504460E4615461F4694F821
:1017F0005100012874D106B10DB90120F8BD00BF18
:1018000094F85000012801D10220F7E7012084F864
:10181000500000BF122084F851000020606526634C
:10182000A586E586E064A064A063A087E087A06A3F
:10183000B0F5005F0DD100BF2068006820F40050B3
:10184000216808602068006840F400502168086042
:1018500000BFA068B0F5004F05D12068006840F4D3
:101860008040216808602068006800F0400040283F
:1018700005D02068006840F0400021680860E068FA
:1018800078BB606810B1E08E012808D1216B481C3C
:10189000206308782168C860E08E401EE08611E071
:1018A0003B4600220221204601F0A6FB08B103209E
:1018B000A4E7216B481C206308782168C860E08E8B
:1018C000401EE086E08E0028EADCA06AB0F5005FEA
:1018D00038D12068006840F480502168086031E009
:1018E0005EE0FFE7606810B1E08E012809D1206B4F
:1018F00000882168C860206B801C2063E08E401E39
:10190000E08612E03B4600220221204601F074FBF3
:1019100008B1032072E7206B00882168C860206B43
:10192000801C2063E08E401EE086E08E0028E9DC0B
:10193000A06AB0F5005F05D12068006840F48050CF
:10194000216808603B4600220221204601F054FB3A
:1019500028B1606D40F01000606503204EE73B4603
:1019600001228021204601F047FB28B1606D40F044
:1019700010006065032041E7A06840B900BF2068FF
:10198000C068009020688068009000BF00BF012000
:1019900084F8510000BF002084F8500000BF2DE7FC
:1019A00002202BE72DE9F84304460E4617461D4654
:1019B000DDF820800020009094F85100012803D029
:1019C00094F85100222876D10EB107B115B9012043
:1019D000BDE8F88300BF94F85000012801D102202F
:1019E000F6E7012084F8500000BF94F85100012868
:1019F00002D1322084F8510000206065A763A587DA
:101A0000E5872663A586E586A064E064A06AB0F554
:101A1000005F0DD100BF2068006820F400502168ED
:101A200008602068006840F400502168086000BF2A
:101A30002068006800F04000402805D02068006859
:101A400040F0400021680860E068B0F5006F75D193
:101A5000606830B16068B0F5827F0CD1E08E0128FB
:101A600009D1206B00882168C860206B801C20632E
:101A7000E08E401EE086E08EF0B9A06AB0F5005F0F
:101A800005D12068006840F4805021680860434612
:101A900000220121204601F0AFFA08B1032097E7A8
:101AA0002068C068A16B0880A06B801CA063E08FD9
:101AB000401EE087C7E015E131E0434600220221E5
:101AC000204601F099FA08B1032081E7206B0088D5
:101AD0002168C860206B801C2063E08E401EE08679
:101AE000E08E48B9A06AB0F5005F05D120680068B3
:101AF00040F48050216808604346002201212046BE
:101B000001F07AFA08B1032062E72068C068A16B8F
:101B10000880A06B801CA063E08F401EE087E08EF1
:101B20000028CADC60680028C4D143460022012195
:101B3000204601F061FA10B1032049E70AE020686D
:101B4000C068A16B0880A06B801CA063E08F401E62
:101B5000E08778E0606830B16068B0F5827F0BD1D3
:101B6000E08E012808D1216B481C20630878216889
:101B7000C860E08E401EE086E08ED0B9A06AB0F565
:101B8000005F05D12068006840F48050216808603B
:101B9000434600220121204601F02EFA08B103201D
:101BA00016E72068C068A16B0870E08F401EE087D0
:101BB00049E030E0434600220221204601F01CFAB1
:101BC00008B1032004E7216B481C206308782168D2
:101BD000C860E08E401EE086E08E48B9A06AB0F58D
:101BE000005F05D12068006840F4805021680860DB
:101BF000434600220121204601F0FEF908B10320EE
:101C0000E6E62068C068C1B2A26B501CA0631170E8
:101C1000E08F401EE087E08E0028CBDC606890B942
:101C2000434600220121204601F0E6F908B10320D5
:101C3000CEE62068C068C1B2A26B501CA0631170D0
:101C4000E08F401EE087A06AB0F5005F12D14346E6
:101C500000220121204601F0CFF928B1606D40F04B
:101C6000020060650320B3E62068C06880B200907F
:101C7000BDF80000434601228021204601F0BCF956
:101C800028B1606D40F0100060650320A0E60120DF
:101C900084F85100A06AB0F5005F1DD1206880680B
:101CA000C0F30010C0B1606D40F00200606500BF7D
:101CB0002068006820F400502168086020680068EF
:101CC00040F400502168086000BF00BF002084F885
:101CD000500000BF01207BE600BF002084F85000C8
:101CE00000BF75E6022073E6042808D14FF0E0211A
:101CF000096941F004014FF0E022116107E04FF063
:101D0000E021096921F004014FF0E02211617047E0
:101D1000704770B504462546681EB0F1807F01D338
:101D200001200FE0681E4FF0E02148610F214FF0C5
:101D3000FF3001F00DF900204FF0E021886107200D
:101D40000861002070BD10B5FFF7E2FF10BD7047BD
:101D50007047024600BF92F83800012801D10220E6
:101D60007047012082F8380000BF022082F8390055
:101D70001068406820F07000136858601068406870
:101D80000B681843136858601068806820F0800062
:101D900013689860106880684B68184313689860EF
:101DA000012082F8390000BF002082F8380000BF0F
:101DB00000BFD5E710B504460CB9012010BD94F85A
:101DC000390028B9002084F83800204600F00CF8CB
:101DD000022084F83900211D206801F031FA012029
:101DE00084F839000020E9E738B504461649206830
:101DF000884216D100BF1548806940F4006013493D
:101E000088610846806900F40060009000BF00BF50
:101E1000002201211920FEF770FC1920FEF760FC5A
:101E200011E02068B0F1804F0DD100BF0748C069B4
:101E300040F001000549C8610846C06900F0010092
:101E4000009000BF00BF38BD002C014000100240D0
:101E500001460868C06840F001000A68D060086860
:101E6000006840F001000A681060002070472DE90A
:101E7000F04104460D46002600BF94F838000128C2
:101E800002D10220BDE8F081012084F8380000BFB3
:101E9000022084F839002068866826F0770626F448
:101EA0007F4620688660286850283BD00CDC2028BC
:101EB00060D004DC002853D0102865D155E03028CC
:101EC0005DD0402860D141E0602835D070280DD029
:101ED000B0F5805F03D0B0F5005F55D115E0206804
:101EE000806820F00700216888604EE0D5E9021381
:101EF0006A68206801F0F0F92068866826F07706A5
:101F000046F07706206886603FE0D5E902136A68EC
:101F1000206801F0E1F92068806840F48040216881
:101F2000886032E0EA686968206801F0B3FA5021FD
:101F3000206801F0DDF928E0EA686968206801F0AE
:101F4000BEFA6021206801F0D3F91EE0EA686968F2
:101F5000206801F09FFA4021206801F0C9F914E0DF
:101F60000021206801F0C4F90FE01021206801F081
:101F7000BFF90AE02021206801F0BAF905E030211C
:101F8000206801F0B5F900E000BF00BF012084F82F
:101F9000390000BF002084F8380000BF00BF71E79F
:101FA000704710B5044620680069C0F34000D8B1FE
:101FB0002068C068C0F34000B0B16FF00200216833
:101FC0000861012020762068806900F0030018B1C4
:101FD0002046FFF7E5FF05E0204600F0C1F8204667
:101FE00000F05EF90020207620680069C0F38000D0
:101FF000D8B12068C068C0F38000B0B16FF00400B1
:1020000021680861022020762068806900F4407011
:1020100018B12046FFF7C4FF05E0204600F0A0F805
:10202000204600F03DF90020207620680069C0F3CA
:10203000C000D8B12068C068C0F3C000B0B16FF074
:10204000080021680861042020762068C06900F03B
:10205000030018B12046FFF7A3FF05E0204600F07B
:102060007FF8204600F01CF90020207620680069E7
:10207000C0F30010D8B12068C068C0F30010B0B140
:102080006FF0100021680861082020762068C06980
:1020900000F4407018B12046FFF782FF05E02046AB
:1020A00000F05EF8204600F0FBF800202076206863
:1020B000006900F0010058B12068C06800F001001C
:1020C00030B16FF0010021680861204600F00AF984
:1020D00020680069C0F3C01058B12068C068C0F320
:1020E000C01030B16FF08000216808612046FFF712
:1020F0002EFE20680069C0F3801058B12068C068C7
:10210000C0F3801030B16FF04000216808612046B4
:1021100000F0E9F820680069C0F3401058B1206869
:10212000C068C0F3401030B16FF020002168086132
:102130002046FFF70DFE10BD1FB504462068B0F124
:10214000804F09D1042000900220019003200390C9
:1021500069460248FEF7B6F81FBD000000080140BE
:10216000704770B504460D46164600BF94F8380017
:10217000012801D1022070BD012084F8380000BF81
:10218000022084F8390036B1042E1BD0082E31D03D
:102190000C2E5ED145E02946206801F0B3F8206896
:1021A000806940F00800216888612068806920F01B
:1021B00004002168886120688069296908432168D2
:1021C000886147E02946206801F0CEF820688069E0
:1021D00040F40060216888612068806920F4806094
:1021E0002168886120688069296940EA01202168A6
:1021F00088612FE02946206801F0EEF82068C06968
:1022000040F008002168C8612068C06920F004001F
:102210002168C8612068C069296908432168C861CC
:1022200018E02946206801F00DF92068C06940F4E3
:1022300000602168C8612068C06920F4806021685E
:10224000C8612068C069296940EA01202168C86125
:1022500000E000BF00BF012084F8390000BF00206B
:1022600084F8380000BF00BF85E710B504460CB9FC
:10227000012010BD94F8390028B9002084F83800F6
:10228000204600F00CF8022084F83900211D206857
:1022900000F0D6FF012084F839000020E9E77047FC
:1022A0007047000030B504460D46012229462068DB
:1022B00001F004F80A492068884201D1012000E0B9
:1022C000002028B12068406C40F400402168486438
:1022D0002068006840F0010021680860002030BDDF
:1022E000002C01407047704710B504460CB901201E
:1022F00010BDA06900B100E000BF94F8390028B912
:10230000002084F83800204600F026F8022084F8E7
:1023100039002068C06820F400502168C860204659
:1023200001F0E4F82068006920F490402168086119
:102330002068406920F02A00216848612068C06850
:1023400040F400502168C8600020E063012084F858
:1023500039000020CCE7000010B586B004461649CD
:102360002068884226D100BF1448C06940F400307C
:102370001249C8610846C06900F40030019000BFEE
:1023800000BF20200290022003900320059002A9A4
:102390000B48FDF797FF4020029000200390049027
:1023A00002A90748FDF78EFF0648406840F0080084
:1023B0000449486006B010BD0044004000100240CF
:1023C000001401400000014030B50346002493F89A
:1023D0003940012C01D0122C37D101B10AB90120AA
:1023E00030BD00BF93F83800012801D10220F7E783
:1023F000012083F8380000BF99629A85DA850020B1
:10240000D86393F83900122803D1322083F83900B9
:1024100002E0222083F8390000BF002083F8380052
:1024200000BF1868C06840F480701D68E8601868D4
:10243000406940F001001D6868611868C06840F09C
:1024400020001D68E8600020CAE70220C8E72DE9E7
:10245000F04704460D46164699464FF0000894F89A
:102460003980B8F1010F02D0B8F1220F65D105B162
:1024700016B90120BDE8F08700BF94F838000128A4
:1024800001D10220F6E7012084F8380000BF0020C7
:10249000E06394F83900222803D1322084F839000F
:1024A00002E0122084F83900A684E68428E0E08C5B
:1024B000401EE084A068B0F5805F14D14B46002236
:1024C0008021204601F0F6F808B10320D2E72F461C
:1024D0003888C0F3080021684860206908B9AD1C3D
:1024E0000EE06D1C0CE04B4600228021204601F0DE
:1024F000E1F808B10320BDE715F8010B2168486039
:10250000E08C0028D3DC4B4600224021204601F01D
:10251000D1F808B10320ADE794F83900322803D18F
:10252000222084F8390002E0012084F8390000BF3D
:10253000002084F8380000BF9CE702209AE700BF23
:10254000FEE7000070B505460E461446A4F12000D3
:10255000C4B204EB4400044901EB001231462846A2
:1025600000F024F870BD0000183E00082DE9F0418D
:1025700007460C460025002609E0227831463846F9
:10258000FFF7E0FF06F1100086B2641C6D1C207896
:1025900008B1012000E00020142D01D2012100E04B
:1025A000002108400028E8D1BDE8F0812DE9F0477E
:1025B00006468946174600240025A046B0464946EF
:1025C000404600F033F800BF1FE02C2000F096F9E1
:1025D00000250FE037F814000121A940084020B978
:1025E0000C48008800F012FA03E00B48008800F065
:1025F0000DFA6D1C102DEDD308F101001FFA80F8C3
:102600004946404600F012F8641C182CDDD3BDE8A2
:10261000F0870000B8000020B600002001B5BDF82A
:1026200000000149088008BDB800002070B50446CC
:102630000D462B2000F062F9200A00F0A3F9E0B269
:1026400000F0A0F92A2000F059F9280A00F09AF9C0
:10265000E8B200F097F970BD01B5BDF8000001497E
:10266000088008BDB600002010B501228021A248D4
:10267000FDF7B6FF3220FDF709FE012000F03EF91C
:102680000520FDF703FE282000F038F9CF2000F0E8
:1026900035F9002000F076F9832000F073F930203E
:1026A00000F070F9ED2000F029F9642000F06AF9DB
:1026B000032000F067F9122000F064F9812000F097
:1026C00061F9E82000F01AF9852000F05BF901209B
:1026D00000F058F9792000F055F9CB2000F00EF900
:1026E000392000F04FF92C2000F04CF9002000F0C8
:1026F00049F9342000F046F9022000F043F9F720B0
:1027000000F0FCF8202000F03DF9EA2000F0F6F897
:10271000002000F037F9002000F034F9C02000F06C
:10272000EDF8262000F02EF9C12000F0E7F8112086
:1027300000F028F9C52000F0E1F8352000F022F97A
:102740003E2000F01FF9C72000F0D8F8BE2000F0AE
:1027500019F9362000F0D2F8A82000F013F93A2039
:1027600000F0CCF8552000F00DF9B12000F0C6F8CB
:10277000002000F007F91B2000F004F9F22000F01F
:10278000BDF8082000F0FEF8262000F0B7F8012080
:1027900000F0F8F8E02000F0B1F81F2000F0F2F8A7
:1027A0001A2000F0EFF8182000F0ECF80A2000F0F2
:1027B000E9F80F2000F0E6F8062000F0E3F84520E5
:1027C00000F0E0F8872000F0DDF8322000F0DAF8C1
:1027D0000A2000F0D7F8072000F0D4F8022000F01B
:1027E000D1F8072000F0CEF8052000F0CBF800204B
:1027F00000F0C8F8E12000F081F8002000F0C2F8F5
:10280000252000F0BFF8272000F0BCF8052000F0DC
:10281000B9F8102000F0B6F8092000F0B3F83A201B
:1028200000F0B0F8782000F0ADF84D2000F0AAF8E4
:10283000052000F0A7F8182000F0A4F80D2000F003
:10284000A1F8382000F09EF83A2000F09BF81F20F5
:1028500000F098F82A2000F051F8002000F092F8DB
:10286000002000F08FF8012000F08CF83F2000F0ED
:1028700089F82B2000F042F8002000F083F80020B7
:1028800000F080F8002000F07DF8EF2000F07AF8EA
:10289000B72000F033F8072000F074F8B62000F0FD
:1028A0002DF80A2000F06EF8C22000F06BF8272007
:1028B00000F068F8002000F065F8112000F01EF824
:1028C0006420FDF7E3FC2C2000F018F8002403E05E
:1028D000002000F09BF8641CB4F5963FF8DB29203B
:1028E00000F00CF86420FDF7D1FC012280210248A1
:1028F000FDF776FE10BD00000014014001B584B064
:102900004FF4A050009001200190032003906946ED
:102910001A48FDF7D7FC00224FF480511748FDF705
:102920005FFE00224FF480611448FDF759FE00223B
:102930004FF480711148FDF753FE012291020F48B8
:10294000FDF74EFE00224FF480610C48FDF748FE73
:102950000B48FEF7E3FE0A23012204A90848FEF70C
:1029600041FF00BF0648FEF78FFE1228FAD0012271
:1029700011020248FDF734FE05B000BD0010014011
:102980001401002001B584B04FF4A0500090012044
:1029900001900320039069461A48FDF793FC012239
:1029A00011031848FDF71CFE00224FF48061154802
:1029B000FDF716FE00224FF480711248FDF710FE5D
:1029C000012291020F48FDF70BFE00224FF48061B7
:1029D0000C48FDF705FE0C48FEF7A0FE0A23012275
:1029E00004A90948FEF7FEFE00BF0748FEF74CFEAB
:1029F0001228FAD0012211020248FDF7F1FD05B0BC
:102A000000BD0000001001401401002010B5044674
:102A10002012FFF7B7FFE0B2FFF7B4FF10BD10B50B
:102A2000142000F05DF8044604F0030018B90321F7
:102A3000142000F081F810BD2DE9FC410446002768
:102A400000210D2000F01AF99320207020206070E2
:102A500001A823460222214600900C2000F079F8BC
:102A600006465EB9002503E0605D4740681CC5B2BC
:102A7000042DF9DB605DB84200D002263046BDE887
:102A8000FC8170B505460C46284600F029F820EA7E
:102A900004063146284600F0F1F870BD10B500F08C
:102AA00045F88D212A2000F0E9F83E212B2000F086
:102AB000E5F81E212D2000F0E1F800212C2000F087
:102AC000DDF87021262000F0D9F84021152000F013
:102AD000D5F83D21112000F0D1F8FFF7A0FF10BD7F
:102AE00070B504467E2000EA440040F08004204691
:102AF00000F054FA0546284670BD7CB506460C46E3
:102B000007210D2000F0BAF8267001A82346012203
:102B1000214600900C2000F01CF805461DB9BDF8B8
:102B20000400102800D0022528467CBD10B50F21D6
:102B3000012000F0A3F810BD70B505460C462846EC
:102B4000FFF7CEFF40EA04063146284600F096F82B
:102B500070BD2DE9FE4F0646884691469A46DDF83F
:102B600030B0022002900020019000900C2E06D080
:102B70000E2E09D1122001901020009005E0772040
:102B800001903020009000E000BF00BF019840F0AD
:102B90008001022000F072F880210420FFF771FF0D
:102BA00080210A20FFF7C8FF0021012000F066F80D
:102BB000002506E018F80510092000F05FF8681CF1
:102BC00085B24D45F6DB3146012000F057F80C2E5A
:102BD00003D180210D20FFF7AFFF4FF4FA6500BF4E
:102BE0000420FFF77DFF0446681E85B235B104F06E
:102BF000010018B9009820400028F1D080210D2054
:102C0000FFF73FFF002D36D00620FFF769FF00F0E9
:102C10001B0070BB002002900198204000F00100D2
:102C200008B1012002900C2E25D10A20FFF758FF91
:102C300004460C20FFF754FF00F007072FB1601E79
:102C400007EBC000ABF8000002E0E000ABF80000CA
:102C500004B90124102C00DD1024002506E0092011
:102C6000FFF73EFF0AF80500681C85B2A542F6DBB7
:102C700001E0022002900298BDE8FE8F70B5044684
:102C80000D467E2000EA44042946204600F09EF9C5
:102C900070BD000000B585B000BF3648806940F0C7
:102CA0000400344988610846806900F004000090FF
:102CB00000BF00BF00BF0846806940F01000886177
:102CC0000846806900F01000009000BF00BF00BF00
:102CD0000846806940F0200088610846806900F05D
:102CE0002000009000BF00BF012001902248029008
:102CF0000220039001A92148FDF7E4FA48F21000F0
:102D00000190012002900220049001A91B48FDF7C8
:102D1000D9FA4FF4807001900120029002200490B3
:102D200001A91748FDF7CEFA8020019001200290FA
:102D30000220049001A91348FDF7C4FA002248F2CA
:102D400010010E48FDF74CFC00224FF480710C4836
:102D5000FDF746FC002280210A48FDF741FC0022D5
:102D600002210620FDF7C9FC0620FDF7B9FC05B0DD
:102D700000BD0000001002400000111000080140DA
:102D8000001001400014014010B50E480E490860C3
:102D90004FF48270486000210B488160C16001617E
:102DA00041614FF4007181611821C161002101620C
:102DB000416281620A21C162FEF76AFC08B1FDF737
:102DC00063FA10BD00300140BC00002010B50E4871
:102DD0000E4908604FF48270486000210B48816002
:102DE000C160016141614FF4007181610021C161E5
:102DF0000162416281620A21C162FEF749FC08B1A9
:102E0000FDF742FA10BD0000003C00401401002014
:102E100000B587B014481549086044F25650486020
:102E200000211248816040F69C71C160002101615F
:102E30004161FEF7BFFF08B1FDF726FA4FF480505D
:102E4000039003A90948FFF712F808B1FDF71CFA2F
:102E500000200190029001A90448FEF77AFF08B112
:102E6000FDF712FA07B000BD002C01406C010020F4
:102E700000B58DB04FF080402049086040F28C5082
:102E8000486000211D48816040F2E731C1600021A7
:102E90000161FEF78FFF08B1FDF7F6F94FF480509E
:102EA000099009A91548FEF7E2FF08B1FDF7ECF912
:102EB0001248FFF7DAF908B1FDF7E6F900200790AC
:102EC000089007A90D48FEF744FF08B1FDF7DCF9AB
:102ED0006020009040F2F3100190002002900490D6
:102EE000082269460548FFF73CF908B1FDF7CCF91F
:102EF0000248FFF721F90DB000BD0000A801002035
:102F000010B50B480B4908604FF4E13048600021D0
:102F100008488160C16001610C214161002181612B
:102F2000C161FFF7E1F908B1FDF7AEF910BD00008E
:102F300000440040E401002000BFFEE770470000AD
:102F400002480068C0F30220704700000CED00E06A
:102F500010B5002807DA0A07140E054A00F00F031F
:102F60001B1FD45403E00A07130E024A135410BD6A
:102F700018ED00E000E400E0704700003EB50446B4
:102F800002946420012301AA02A900900248FEF7DE
:102F900009FD9DF804003EBDBC00002070B504464C
:102FA000002210210848FDF71BFB2046FFF7E6FF33
:102FB0000020FFF7E3FF0546012210210248FDF73C
:102FC0000FFB284670BD00000008014070B50546A3
:102FD0000C46002210210748FDF702FB2846FFF7A8
:102FE000CDFF2046FFF7CAFF012210210148FDF75F
:102FF000F7FA70BD000801402DE9F04104460E4685
:1030000017461D464FF00008FDF7F0FA8046002FE6
:103010003ED132E0681C78B32DB1FDF7E7FAA0EBA2
:103020000800A84229D92068406820F0E000216803
:1030300048602068006820F0400021680860A06AAD
:10304000B0F5005F0DD100BF2068006820F400508B
:10305000216808602068006840F40050216808601A
:1030600000BF012084F8510000BF002084F8500008
:1030700000BF0320BDE8F081FFE720688068304092
:10308000B04201D1012000E000200028C2D03BE086
:1030900030E0681C70B32DB1FDF7A8FAA0EB080072
:1030A000A84227D92068406820F0E00021684860E5
:1030B0002068006820F0400021680860A06AB0F530
:1030C000005F0DD100BF2068006820F40050216827
:1030D00008602068006840F400502168086000BF64
:1030E000012084F8510000BF002084F8500000BF88
:1030F0000320BFE7206880683040B04201D1012042
:1031000000E000200028C4D10020B3E7704710B5CC
:10311000FDF772FAFEF717FE10BD000010B594B06F
:1031200001200690000408900420099001200B90D3
:103130000004079002200E90C1030F914FF4E0119C
:10314000109111904FF4C06112914021139106A883
:10315000FDF750FD08B1FDF797F80F200190022010
:103160000290002003904FF48060049000200590AE
:10317000022101A8FDF714FB08B1FDF785F8FDF762
:103180005BFC4FF47A71B0FBF1F42046FEF7C1FD11
:103190000420FEF7A9FD0120010791FAA1F1B1FA7F
:1031A00081F1054A42F8210000221146801EFDF7F8
:1031B000A4FA14B010BD0000000042421448006898
:1031C00040F0010012490860084640681149084073
:1031D0000F494860084600680F4908400C490860DC
:1031E0000846006820F4802008600846406820F403
:1031F000FE0048600846006820F0A05008604FF4C8
:103200007F0088600020C862C803044908607047D6
:10321000001002400000FFF0FFFFF6FE08ED00E0A6
:1032200010B505480068401C0349086000F0C2FC66
:103230000248FEF7B6FE10BDAC0000206C01002075
:1032400000220268194B98420BD0B0F1804F08D091
:10325000174B984205D0174B984202D0164B984214
:1032600003D122F070024B681A43104B98420BD0E6
:10327000B0F1804F08D00E4B984205D00D4B9842CC
:1032800002D00D4B984203D122F44072CB681A430E
:1032900002608B68C3620B688362044B984201D161
:1032A0000B6903630123436170470000002C014058
:1032B0000004004000080040000C004030B500232E
:1032C000012404FA01F3046A9C430462046A02FACA
:1032D00001F52C43046230BD30B50C4600218168F5
:1032E00021F47F4142EA032525432943816030BD13
:1032F0000A460021816821F0700142F0070319435A
:103300008160704730B5002400220023056A25F053
:1033100001050562026A4368846924F0700424F0A0
:1033200003040D682C4322F002028D682A430D4DE0
:10333000A84206D100BF22F00802CD682A4322F03D
:103340000402084DA84207D123F4807323F40073CC
:103350004D692B438D692B43436084614D68456300
:10336000026230BD002C014030B500240022002351
:10337000056A25F010050562026A4368846924F431
:10338000E04424F440740D6844EA052422F020024D
:103390008D6842EA05120F4DA84207D100BF22F006
:1033A0008002CD6842EA051222F04002094DA8428F
:1033B00009D123F4806323F400634D6943EA850354
:1033C0008D6943EA8503436084614D6885630262C9
:1033D00030BD0000002C014030B500240022002345
:1033E000056A25F480750562026A4368C46924F0A1
:1033F000700424F003040D682C4322F400728D68DD
:1034000042EA05220E4DA84207D100BF22F4006215
:10341000CD6842EA052222F48062094DA84209D112
:1034200023F4805323F400534D6943EA05138D6957
:1034300043EA05134360C4614D68C563026230BD51
:10344000002C014030B5002200230024056A25F439
:1034500080550562036A4468C26922F4E04222F49E
:1034600040720D6842EA052223F400538D6843EA56
:103470000533074DA84204D124F480444D6944EA41
:1034800085144460C2614D680564036230BD00006C
:10349000002C014030B50B46144600210022026A80
:1034A000056A25F001050562816921F0F00141EA14
:1034B000041122F00A021A438161026230BD30B564
:1034C0000B46144600210022056A25F0100505620E
:1034D0008169026A21F4704141EA043122F0A002BC
:1034E00042EA03128161026230BD00002DE9F04121
:1034F000044600252068006920F44050E168084334
:10350000216808612169A0680843616940EA0105F2
:103510002068C06841F20C61884328432168C86074
:103520002068406920F44070A1690843216848611F
:103530005F49206888425CD1FDF79AFA00EBC00130
:1035400001EB001061688900B0FBF1F6FDF790FA1D
:1035500000EBC00101EB001061688900B0FBF1F0E5
:103560006421B0FBF1F000EBC00101EB0010A6EB11
:103570008000322101EB00106421B0FBF1F000F07B
:10358000F006FDF775FA00EBC00101EB0010616871
:103590008900B0FBF1F06421B0FBF1F006EB0016FE
:1035A000FDF766FA00EBC00101EB001061688900CD
:1035B000B0FBF1F7FDF75CFA00EBC00101EB001086
:1035C00061688900B0FBF1F06421B0FBF1F000EB21
:1035D000C00101EB0010A7EB8000322101EB0010CD
:1035E0006421B0FBF1F000F00F00304421688860E6
:1035F0005BE0FDF727FA00EBC00101EB001061680A
:103600008900B0FBF1F6FDF71DFA00EBC00101EBFC
:10361000001061688900B0FBF1F06421B0FBF1F0AB
:1036200000EBC00101EB0010A6EB8000322101EBA2
:1036300000106421B0FBF1F000F0F006FDF702FA93
:1036400000EBC00101EB001061688900B0FBF1F0F4
:103650006421B0FBF1F006EB0016FDF7F3F900EB87
:10366000C00101EB001061688900B0FBF1F7FDF7C4
:10367000E9F900EBC00101EB001061688900B0FBC3
:10368000F1F06421B0FBF1F000EBC00101EB0010A0
:10369000A7EB8000322101EB00106421B0FBF1F0B8
:1036A00000F00F00304421688860BDE8F081000020
:1036B000003801402DE9F04104460E4617461D46EC
:1036C0004FF00008FCF792FF80469FBB2BE0681C80
:1036D00048B32DB1FCF78AFFA0EB0800A84222D91D
:1036E0002068C06820F080002168C8602068C06839
:1036F00020F020002168C8602068C06820F4807035
:103700002168C8602068406920F001002168486194
:10371000012084F8390000BF002084F8380000BF81
:103720000320BDE8F081206800683040B04202D13B
:10373000012001E003E000200028C8D035E02AE0A5
:10374000681C40B32DB1FCF751FFA0EB0800A84264
:1037500021D92068C06820F080002168C8602068F6
:10376000C06820F020002168C8602068C06820F48C
:1037700080702168C8602068406920F001002168DD
:103780004861012084F8390000BF002084F8380027
:1037900000BF0320C5E7206800683040B04201D177
:1037A000012000E000200028CAD10020B9E700BFB6
:1037B000FEE700000FB4084B10B504A902AA039855
:1037C00000F01CF8044602A9002000F0B8F92046D9
:1037D00010BC5DF814FB00003F3B000802E008C885
:1037E000121F08C1002AFAD170477047002001E07B
:1037F00001C1121F002AFBD1704700002DE9FF4FC5
:103800008BB088460546002606E025280BD0DDE96A
:103810000D1290476D1C761C28780028F5D10FB04A
:103820003046BDE8F08F0024A146A2460122AE49F1
:1038300000E0044315F8013F203B02FA03F0084280
:10384000F7D128782A2810D06FF02F022878A0F11D
:103850003001092915D809EB890102EB410144F037
:10386000020400EB01096D1CF0E758F8041B5FEA45
:10387000010903D544F40054C9F1000944F00204DD
:103880006D1C28782E2817D115F8010F44F0040478
:103890002A280ED06FF02F022878A0F130010929D4
:1038A0000AD80AEB8A0102EB410100EB010A6D1C08
:1038B000F2E758F804AB6D1C28786C280FD006DCB2
:1038C0004C2817D068280DD06A2814D104E0742839
:1038D00010D07A280FD10DE044F400140AE044F42B
:1038E000801401E044F440146978814202D104F567
:1038F00080146D1C6D1C2878692865D006DC0028B2
:103900008DD0632827D0642806D15DE06E2808D0CA
:1039100073282AD0752877D0DDE90D129047761CE0
:10392000E0E0C4F30250022809D003280DD0D8F8F3
:10393000001004280DD00E6008F10408D2E0D8F879
:103940000010F217C1E90062F6E7D8F800100E8007
:10395000F2E70E70F0E718F8041B8DF80010002055
:103960008DF80100EB46012003E058F804BB4FF04E
:10397000FF3061074FF0000701D40AE07F1C574574
:103980000DDA8742FADB1BF807100029F6D106E0B2
:103990007F1C8742FCDB1BF807100029F8D1DDE90A
:1039A0000D23A9EB07008146214600F0B1F8304411
:1039B000C61904E0DDE90D121BF8010B90477F1ECC
:1039C000F8D22146484688E058F8040BC4F3025167
:1039D0004FF00A0B032900D100B2042900D140B2F4
:1039E000002802DA40422D2102E0210505D52B21D5
:1039F0008DF82410012104E006E0E10710D0202119
:103A0000F6E708AF089113E058F8040BC4F302512D
:103A10004FF00A0B032900D180B2042900D1C0B2B3
:103A20000021EEE75946FCF7FCFB303107F8011D99
:103A30000028F7D1ADEB070000F1200B600702D59D
:103A400024F4803401E04FF0010ADA4502DDAAEBEC
:103A50000B0000E00020824600EB0B0108980144B7
:103A6000A9EB01000A90E00306D4DDE90D2321460D
:103A70000A9800F04DF806444FF0000908E009A943
:103A800011F80900DDE90D12904709F10109761CD2
:103A900008998945F3DBE0030CD5DDE90D232146C8
:103AA0000A9800F035F8064404E0DDE90D123020F4
:103AB0009047761CBAF10001AAF1010AF5DC05E095
:103AC000DDE90D1217F8010B9047761CBBF10001E0
:103AD000ABF1010BF4DC0A982146DDE90D2300F07F
:103AE00005F806446D1C97E6092801002DE9F04110
:103AF000044600251E461746880404D405E03946CE
:103B00002020B0476D1C641EF9D52846BDE8F08121
:103B10002DE9F041044600251E469046C80301D514
:103B2000302700E02027880404D505E041463846C8
:103B3000B0476D1C641EF9D52846BDE8F0810A68BF
:103B4000531C0B601070704710B500224FF40041F9
:103B50000648FCF745FD4FF49670FCF797FB0122F1
:103B6000D1030248FCF73CFD10BD000000080140F5
:103B7000012100200C4A10700FE00C480A4A12780C
:103B8000805C0B4A084B1B78D25C904200D000212D
:103B900005480078401C044A10700348007810283B
:103BA000EBDBC8B2704700000D0000202E020020A1
:103BB0003E02002070B58AB01B4800681B490968A6
:103BC000401A3C21B0FBF1F201FB120616480068D6
:103BD00016490968401A3C21B0FBF1F4124800680C
:103BE00012490968401A4FF46161B0FBF1F52346B0
:103BF0002A460FA102A80096FFF7DCFD10A148207D
:103C0000FEF7B4FC02A96020FEF7B0FC1148007872
:103C100020B111A11820FEF7A9FC03E012A1182081
:103C2000FEF7A4FC0AB070BDAC000020B00000207C
:103C3000253032643A253032643A2530326400004F
:103C40004C617374206F70656E696E6720617420BB
:103C500000000000B4000020446F6767792069739A
:103C60002068657265210000576865726520697378
:103C700020646F67677900001FB5FCF7C5FCFFF78C
:103C80004DFAFFF707F8FFF73BF9FFF7F1F8FFF7F9
:103C90007BF8FFF79BF8FFF7BBF8FEF7FFFEFEF798
:103CA000E3FC2248FEF7D4F864233F222049214850
:103CB000FEF7CDFB012220491E48FEF785FB00F0F0
:103CC00047F80020FEF7AAFC4FF6FF70FEF7C4FC91
:103CD0002BE0FEF7E3FE19492620FEF70EFF88B918
:103CE0001648FEF7A9FE38B9FFF742FF14490870DD
:103CF00000F02EF800F068F8642310220F490D48F8
:103D0000FEF7A5FB0F4810A102686846FFF752FDB9
:103D10006846FCF739FA84B26423224669460548AE
:103D2000FEF795FB0A20FCF7B1FAD2E76C01002000
:103D300014000020E40100206F0000203E0200205B
:103D4000A8000020AC0000200D0A2564000000003F
:103D500070B516480068164908601648007808B91A
:103D6000012000E0002013490870FFF7EDFE124C1F
:103D7000124D29461248FCF70EFA0646FCF73DFAAA
:103D800010490968C86308210E48FEF78BFA4FF402
:103D90007A70FCF77BFA21460948FCF7FCF90646E5
:103DA000FCF72BFA07490968C86370BDAC00002016
:103DB000B0000020B400002014AEC73DCDCC4C3D77
:103DC00000C07944A801002000200A4908700CE0D6
:103DD000094808490978405C0849064A127888541D
:103DE00004480078401C03490870024800781028F5
:103DF000EEDB70470D0000203E0200202E02002066
:103E0000000000000000000001020304060708098A
:103E10000000000001020304000000000000000098
:103E20000000000000000000000000000000000092
:103E30000000000000000000000000000000000082
:103E400000000000000000000000800180018001EF
:103E5000800180018001800180018001800180015A
:103E6000800180010000000080018001000000004E
:103E7000000000000000000000000000CC00CC00AA
:103E8000CC00CC00CC00CC00000000000000000002
:103E90000000000000000000000000000000000022
:103EA0000000000000000000000000000000000012
:103EB00000000000600C600C600C30063006FE1F35
:103EC000FE1F300638071803FE1FFE1F18031803D5
:103ED0008C018C018C01000000008000E003F80FD1
:103EE0009C0E8C1C8C188C009800F801E007800E4A
:103EF000801C8C188C189C18B80CF00FE003800004
:103F000080000000000000000000000000000E180B
:103F10001B0C110C11061106110311039B018E01DC
:103F2000C038C06C60446044304430441844186C5D
:103F30000C380000000000000000E001F00338072A
:103F4000180618063003F001F000F8009C310E331B
:103F5000061E061C061C063FFC73F0210000000034
:103F60000000000000000000000000000C000C0039
:103F70000C000C000C000C00000000000000000011
:103F80000000000000000000000000000000000031
:103F9000000000000000000000000002000380019B
:103FA000C000C00060006000300030003000300011
:103FB000300030003000300060006000C000C00001
:103FC0008001000300020000000020006000C0002B
:103FD00080018001000300030006000600060006C1
:103FE00000060006000600060003000380018001B1
:103FF000C000600020000000000000000000000081
:1040000000000000C000C000D806F807E00130033F
:104010003807000000000000000000000000000061
:104020000000000000000000000000000000000090
:104030000000000080018001800180018001FC3FC0
:10404000FC3F8001800180018001800100000000B0
:104050000000000000000000000000000000000060
:104060000000000000000000000000000000000050
:10407000000000000000000000008001800100013D
:1040800000018000000000000000000000000000AF
:104090000000000000000000000000000000000020
:1040A000E007E00700000000000000000000000042
:1040B0000000000000000000000000000000000000
:1040C00000000000000000000000000000000000F0
:1040D00000000000000000000000C000C000000060
:1040E00000000000000000000000000C000C0006B2
:1040F0000006000600030003000380038001800126
:104100008001C000C000C00060006000000000002E
:1041100000000000000000000000E003F007380E7F
:10412000180C0C180C180C180C180C180C180C186F
:104130000C180C18180C380EF007E00300000000F3
:104140000000000000000000000000018001C0012C
:10415000F0019801880180018001800180018001C7
:104160008001800180018001800180010000000049
:1041700000000000000000000000E003F80F180C31
:104180000C180C1800180018000C00060003800121
:10419000C000600030001800FC1FFC1F0000000081
:1041A00000000000000000000000E001F807180E09
:1041B0000C0C0C0C000C0006C003C007000C00180F
:1041C00000180C180C18180CF807E0030000000089
:1041D00000000000000000000000000C000E000FB6
:1041E000000F800DC00C600C600C300C180C0C0C17
:1041F000FC3FFC3F000C000C000C000C0000000019
:1042000000000000000000000000F80FF80F180088
:1042100018000C00EC03FC071C0E001C0018001812
:1042200000180C181C0C180EF807E0030000000022
:1042300000000000000000000000C007F00F381C64
:10424000181818000C00CC03EC0F3C0E1C1C0C18AA
:104250000C180C18181C380EF007E00300000000C2
:1042600000000000000000000000FC1FFC1F000C0C
:1042700000060006000380038001C001C000E000CA
:10428000600060007000300030003000000000006E
:1042900000000000000000000000E003F007380EFE
:1042A000180C180C180C3806F007F007180C0C182E
:1042B0000C180C180C18380CF80FE0030000000064
:1042C00000000000000000000000E003F007380ECE
:1042D0001C0C0C180C180C181C1C381EF81BE019B0
:1042E0000018000C000C1C0EF807F0010000000084
:1042F00000000000000000000000000000000000BE
:1043000000000000800180010000000000000000AB
:10431000000000000000000080018001000000009B
:10432000000000000000000000000000000000008D
:10433000000000008001800100000000000000007B
:104340000000000000000000800180010001000169
:1043500080000000000000000000000000000000DD
:1043600000000000000000000010001C800FE003AF
:10437000F8001800F800E003800F001C0010000097
:10438000000000000000000000000000000000002D
:104390000000000000000000F81F00000000000006
:1043A000F81F0000000000000000000000000000F6
:1043B00000000000000000000000000000000000FD
:1043C000000000000000000008003800F001C007F5
:1043D000001F0018001FC007F0013800080000008F
:1043E00000000000000000000000E003F80F180CBF
:1043F0000C180C180018000C000600038001C00007
:10440000C000C00000000000C000C00000000000AC
:10441000000000000000000000000000E007181885
:104420000420C229224A11440944094409440922AA
:104430001113E20C024004201818E00700000000ED
:104440000000000000000000000080038003C006A0
:10445000C006C006600C600C301830183018F83FE9
:10446000F83F1C700C600C6006C006C00000000025
:1044700000000000000000000000FC03FC0F0C0C1A
:104480000C180C180C180C0CFC07FC0F0C180C303A
:104490000C300C300C300C18FC1FFC070000000026
:1044A00000000000000000000000C007F01F3838C6
:1044B0001C300C70066006000600060006000600B0
:1044C000060006600C701C30F01FE00700000000C2
:1044D00000000000000000000000FE03FE0F060EBA
:1044E000061806180630063006300630063006304C
:1044F000063006180618060EFE0FFE030000000028
:1045000000000000000000000000FC3FFC3F0C0029
:104510000C000C000C000C00FC1FFC1F0C000C001D
:104520000C000C000C000C00FC3FFC3F00000000E5
:1045300000000000000000000000F83FF83F1800F5
:104540001800180018001800F81FF81F18001800AD
:1045500018001800180018001800180000000000CB
:1045600000000000000000000000E00FF83F3C7871
:104570000E6006E007C00300030003FE03FE03C055
:1045800007C006C00EC03CF0F83FE00F000000007E
:10459000000000000000000000000C300C300C3067
:1045A0000C300C300C300C30FC3FFC3F0C300C302D
:1045B0000C300C300C300C300C300C300000000093
:1045C0000000000000000000000080018001800168
:1045D00080018001800180018001800180018001D3
:1045E00080018001800180018001800100000000C5
:1045F00000000000000000000000000600060006A9
:10460000000600060006000600060006000600067A
:104610000006180618063807F003E0010000000045
:104620000000000000000000000006300618060C24
:10463000060606038601C60066007600DE008E01CF
:1046400006030606060C0618063006600000000089
:104650000000000000000000000018001800180012
:10466000180018001800180018001800180018008A
:104670001800180018001800F81FF81F00000000AC
:10468000000000000000000000000EE01EF01EF020
:104690001EF036D836D836D836D866CC66CC66CC3E
:1046A000C6C6C6C6C6C6C6C686C386C30000000048
:1046B000000000000000000000000C301C303C3006
:1046C0003C306C306C30CC30CC308C310C330C3313
:1046D0000C360C360C3C0C3C0C380C300000000046
:1046E00000000000000000000000E007F81F1C3878
:1046F0000E70066003C003C003C003C003C003C044
:1047000003C006600E701C38F81FE00700000000B0
:1047100000000000000000000000FC0FFC1F0C382F
:104720000C300C300C300C300C18FC1FFC070C004B
:104730000C000C000C000C000C000C000000000031
:1047400000000000000000000000E007F81F1C3817
:104750000E70066003E003C003C003C003C003C0C3
:1047600007E006630E3F1C3CF83FE0F700C0000086
:1047700000000000000000000000FE0FFE1F0638D1
:104780000630063006300638FE1FFE070603060612
:10479000060C0618061806300630066000000000F9
:1047A00000000000000000000000E003F80F1C0CF7
:1047B0000C180C180C001C00F803E00F001E003849
:1047C000063006300E301C1CF80FE0070000000019
:1047D00000000000000000000000FE7FFE7F80015E
:1047E00080018001800180018001800180018001C1
:1047F00080018001800180018001800100000000B3
:10480000000000000000000000000C300C300C30F4
:104810000C300C300C300C300C300C300C300C30B8
:104820000C300C300C301818F81FE00700000000A6
:1048300000000000000000000000036006300630A9
:1048400006300C180C180C18180C180C380E300602
:104850003006700760036003C001C0010000000063
:10486000000000000000000000000360C361C3619D
:10487000C3616633663366336633663366336C1BF7
:104880006C1B6C1B2C1A3C1E380E380E00000000EE
:10489000000000000000000000000FE00C70183065
:1048A0003018700C600EC00780038003C003E00660
:1048B000700C301C18180C300E6007E0000000006F
:1048C0000000000000000000000003C006600C3083
:1048D0001C383818300C6006E007C00380018001E6
:1048E00080018001800180018001800100000000C2
:1048F00000000000000000000000FC7FFC7F006062
:1049000000300018000C000600038001C0006000A9
:10491000300018000C000600FE7FFE7F0000000043
:1049200000000000000000000000E003E003600061
:104930006000600060006000600060006000600077
:104940006000600060006000600060006000600067
:104950006000E003E0030000000030003000600071
:1049600060006000C000C000C000C0018001800184
:1049700080010003000300030006000600000000A1
:1049800000000000000000000000E003E00300035E
:1049900000030003000300030003000300030003FF
:1049A00000030003000300030003000300030003EF
:1049B0000003E003E003000000000000C001C001AC
:1049C00060036003600330063006180C180C00000A
:1049D00000000000000000000000000000000000D7
:1049E00000000000000000000000000000000000C7
:1049F00000000000000000000000000000000000B7
:104A000000000000000000000000FFFFFFFF0000AA
:104A1000000000000000000000000C000C000C0072
:104A20000C000C000C000000000000000000000062
:104A30000000000000000000000000000000000076
:104A40000000000000000000000000000000000066
:104A500000000000F003F8071C0C0C0C000FF00F16
:104A6000F80C0C0C0C0C1C0FF80FF01800000000D8
:104A700000000000000000000000180018001800EE
:104A800018001800D803F80F380C18181818181840
:104A9000181818181818380CF80FD8030000000060
:104AA0000000000000000000000000000000000006
:104AB00000000000C003F007300E180C18001800AA
:104AC00018001800180C300EF007C003000000009A
:104AD000000000000000000000000018001800188E
:104AE00000180018C01BF01F301C181818181818D0
:104AF000181818181818301CF01FC01B00000000F0
:104B000000000000000000000000000000000000A5
:104B100000000000C003F00F300C1818F81FF81F39
:104B2000180018003818301CF00FC00700000000F3
:104B300000000000000000000000800FC00FC00057
:104B4000C000C000F007F007C000C000C000C000F7
:104B5000C000C000C000C000C000C00000000000D5
:104B60000000000000000000000000000000000045
:104B700000000000E00DF80F180E0C0C0C0C0C0CD3
:104B80000C0C0C0C0C0C180EF80FE00D000C0C0C9F
:104B90001C06F807F00100000000180018001800BB
:104BA00018001800D807F80F381C1818181818180B
:104BB00018181818181818181818181800000000D5
:104BC00000000000000000000000C000C000000065
:104BD00000000000C000C000C000C000C000C00055
:104BE000C000C000C000C000C000C0000000000045
:104BF00000000000000000000000C000C000000035
:104C000000000000C000C000C000C000C000C00024
:104C1000C000C000C000C000C000C000C000C00094
:104C2000C000F8007800000000000C000C000C0030
:104C30000C000C000C0C0C060C038C01CC006C005E
:104C4000FC009C018C030C030C060C0C0000000003
:104C500000000000000000000000C000C000C00014
:104C6000C000C000C000C000C000C000C000C00044
:104C7000C000C000C000C000C000C00000000000B4
:104C80000000000000000000000000000000000024
:104C9000000000007C3CFF7EC7E383C183C183C169
:104CA00083C183C183C183C183C183C1000000006C
:104CB00000000000000000000000000000000000F4
:104CC000000000009807F80F381C1818181818185A
:104CD00018181818181818181818181800000000B4
:104CE00000000000000000000000000000000000C4
:104CF00000000000C003F00F300C18181818181826
:104D0000181818181818300CF00FC0030000000015
:104D10000000000000000000000000000000000093
:104D200000000000D803F80F380C181818181818CD
:104D3000181818181818380CF80FD803180018008D
:104D4000180018001800000000000000000000001B
:104D500000000000C01BF01F301C1818181818188D
:104D6000181818181818301CF01FC01B001800184D
:104D700000180018001800000000000000000000EB
:104D800000000000B007F003700030003000300079
:104D900030003000300030003000300000000000F3
:104DA0000000000000000000000000000000000003
:104DB00000000000E003F003380E180C3800F00388
:104DC000C007000C180C380EF007E00300000000CC
:104DD0000000000000000000000000008000C00093
:104DE000C000C000F007F007C000C000C000C00055
:104DF000C000C000C000C000C00780070000000065
:104E000000000000000000000000000000000000A2
:104E10000000000018181818181818181818181872
:104E2000181818181818381CF01FE0190000000096
:104E30000000000000000000000000000000000072
:104E4000000000000C18180C180C180C3006300666
:104E50003006600360036003C001C0010000000071
:104E60000000000000000000000000000000000042
:104E700000000000C141C141C361636363636363B8
:104E80003636363636361C1C1C1C1C1C0000000036
:104E90000000000000000000000000000000000012
:104EA000000000001C38381C300C600660036003F2
:104EB000600360036006300C381C1C3800000000E2
:104EC00000000000000000000000000000000000E2
:104ED000000000001830301830187018600C600C9A
:104EE000E00CC006C00680038003800380018001BF
:104EF000C001F00070000000000000000000000091
:104F000000000000FC1FFC1F000C000600038001D5
:104F1000C000600030001800FC1FFC1F00000000F3
:104F20000000000000000000000000038001C0003D
:104F3000C000C000C000C000C000600060003000C1
:104F400060004000C000C000C000C000C000C00041
:104F5000800100030000000000008001800180014A
:104F60008001800180018001800180018001800139
:104F70008001800180018001800180018001800129
:104F8000800180018001000000006000C000C001BD
:104F90008001800180018001800100030003000680
:104FA00000030001800180018001800180018001F7
:104FB000C0006000000000000000000000000000D1
:104FC0000000000000000000F010F81F080F0000B3
:104FD00000000000000000000000000000000000D1
:104FE0000000000000000000085000080000002041
:104FF000BC000000DC370008C4500008BC000020E2
:1050000094050000EC3700080000000000000000DC
:1050100000A24A04000000000000000053544D3379
:105020003246313033204D69666172652052433516
:1050300032322052464944204361726420726561D5
:105040006465722031332E3536204D487A20666FE4
:1050500072204B45494C2048414C0D4361726420FD
:1050600049443A200D436172642049443A2030306B
:105070003030303030300D000000000000000039CA
:105080004335354131423500000000000000000B7F
:105090000C0E0B040A090000000000000000000EC6
:1050A000060A0100050904000000000000000000DD
:1050B00000000000000000000000000000000000F0
:0450C000FFFF0000EE
:04000005080001519D
:00000001FF
