:020000040800F2
:100000007805002065010008DB1A00088117000848
:10001000D91A0008D501000853210008000000008B
:100020000000000000000000000000001F1C00088D
:10003000D701000800000000FD1A0008211C00087C
:100040007F0100087F0100087F0100087F01000890
:100050007F0100087F0100087F0100087F01000880
:100060007F0100087F0100087F0100087F01000870
:100070007F0100087F0100087F0100087F01000860
:100080007F0100087F0100087F0100087F01000850
:100090007F0100087F0100087F0100087F01000840
:1000A0007F0100087F0100087F0100087F01000830
:1000B0007F0100087F0100087F0100087F01000820
:1000C0007F0100087F0100087F0100087F01000810
:1000D0007F0100087F0100087F0100087F01000800
:1000E0007F0100087F0100087F0100080000000078
:1000F0000000000000000000000000000000000000
:1001000000000000000000007F0100087F010008DF
:100110007F0100087F0100087F0100087F010008BF
:100120007F0100087F0100087F0100087F010008AF
:100130007F0100087F0100087F0100087F0100089F
:100140007F0100087F0100087F0100087F0100088F
:10015000DFF80CD000F02CF800480047D52100084B
:10016000780500200648804706480047FEE7FEE77E
:10017000FEE7FEE7FEE7FEE7FEE7FEE7FEE7FEE757
:10018000C11C00085101000820F00040C10DC0F35F
:10019000160040F400007F2901DA002070479629FC
:1001A00003DCC1F19601C84070479639884070471A
:1001B000064C074D06E0E06840F0010394E80700B4
:1001C00098471034AC42F6D3FFF7C6FFF42200087C
:1001D00014230008FEE7704731B500F0EDF804463F
:1001E00000F0EAF80099001B8842F9D338BD0000FE
:1001F0002DE9F84FDFF890A100220AF1040B144614
:1002000001274FF00F090BF1040E00BF0B6807FA2E
:1002100004F52B40AB4274D1DFF870C14E68A6EBF9
:100220000C0866452BD00DDC032E34D005DC36B32C
:10023000012E19D0022E2FD11BE0112E16D0122E16
:100240002AD119E0B8F5881F19D006DCB8F5803F2F
:1002500015D0B8F5801F1FD111E0B8F5001F0ED0E2
:10026000B8F5041F18D10AE0CA6815E0CA68121D63
:1002700012E0CA6808320FE0CA680C320CE08A68E3
:100280002AB1012A4FF0080203D0456104E004229C
:1002900002E0056100E00022FF2B01D8064601E0E4
:1002A00000F104064FEA840501D9A5F12005D6F82E
:1002B00000C009FA05F82CEA080C02FA05F54CEA28
:1002C000050CC6F800C04D68ED0057D5304DAE693D
:1002D00046F00106AE61AD6924F0030605F00105A4
:1002E00000952C4D06EB050CDCF80850A6074FEAEC
:1002F000167809FA08F6B543274EB04202D1002617
:1003000010E03BE0254EB04201D101260AE0244E28
:10031000B04201D1022605E0224EB04201D10326AF
:1003200000E0042606FA08F62E43CCF808604D6873
:10033000DAF80060ED03554601D51E4300E09E4308
:100340002E604D68DBF80060AD035D4601D51E43AD
:1003500000E09E432E604D68DEF80060ED027546B9
:1003600001D51E4300E09E432E604D68AD020E4D48
:100370002E6801D51E4300E09E432E60641C102CA5
:10038000FFF444AFBDE8F88F0004014000001110F5
:10039000001002400000014000080140000C014034
:1003A00000100140001401400C0401400AB1016139
:1003B00070470904FBE7000001480068704700002F
:1003C0000400002002480168491C016070470000D9
:1003D00004000020074810B5016841F010010160D9
:1003E000032000F07BF8002000F006F800F016F87B
:1003F000002010BD0020024010B5044600F044F972
:100400004FF47A71B0FBF1F000F026FF0022214694
:10041000501E00F043F8002010BD00001D4808B534
:10042000816941F001018161806900F00100009063
:10043000032000F053F8002211466FF00B0000F08B
:100440002DF8002211466FF00A0000F027F8002274
:1004500011466FF0090000F021F800221146501FEC
:1004600000F01CF800221146101F00F017F80022BF
:100470001146901E00F012F800221146501E00F0A6
:100480000DF80548416821F0E06141F0806141606C
:1004900008BD00000010024000000140F0B40E4B07
:1004A0001B680C46C3F30223C3F10705042D00D9D2
:1004B0000425191D072901D2002300E0DB1E0126B7
:1004C00006FA05F1491E214099409E40761E1640CD
:1004D0003143F0BC01F002BB0CED00E0064900F036
:1004E000070208684FF6FF03184040EA0220034A5B
:1004F00010430860704700000CED00E00000FA05B2
:100500002DE9F047DFF8708105460E46D8F8000067
:1005100000F00700B0420CD2D8F8001021F007011B
:100520003143C8F80010D8F8000000F00700B042CE
:1005300077D12878514C800705D56068A96820F0EC
:10054000F000084360602878C00759D0696801202E
:1005500001290DD0022929D05FF0020393FAA3F2FA
:10056000B2FA82F242F02002520904D0226803E07B
:100570004FF40033F2E7626A93FAA3F3B3FA83F31A
:1005800003F01F03984002424BD0606820F0030044
:1005900008436060FFF710FF6968074641F2883042
:1005A00001290DD00229814617D025E04FF00073B4
:1005B000D4E700BFFFF700FFC11B494501D918E090
:1005C00081466068C0F381000128F3D118E000BFC4
:1005D000FFF7F2FEC11B49450BD86068C0F38100EC
:1005E0000228F5D10CE000BFFFF7E6FEC11B49452C
:1005F00002D90320BDE8F087606810F00C0FF3D13A
:10060000D8F80010404601F00701B1420BD901684B
:1006100021F0070131430160006800F00700B0429B
:1006200001D00120E6E72878400705D56068E96831
:1006300020F4E060084360602878000706D5606811
:10064000296920F4605040EAC100606000F052F86F
:100650006168F02292FAA2F201F0F001B2FA82F29D
:10066000D140074A515CC840064908600020FFF7A6
:10067000C3FE0020BEE70000002002400010024040
:10068000DC220008080000200148006870470000D4
:100690000800002008480949006849684FF4E062F2
:1006A00092FAA2F201F4E061B2FA82F2D140044A75
:1006B000515CC84070470000080000200010024054
:1006C000EC22000808480949006849684FF4605264
:1006D00092FAA2F201F46051B2FA82F2D140044AD5
:1006E000515CC84070470000080000200010024024
:1006F000EC220008F0B52DA28AB007CA8DE80700E9
:100700002DA103AC0FC984E80F002F494B682F4877
:1007100003F00C02042A02D0082A02D02C480AB0A6
:10072000F0BD4FF4701595FAA5F403F47012B4FA05
:1007300084F4E2406E461DF80220DB0333D5CB6A19
:100740000F2494FAA4F403F00F03B4FA84F4E34002
:1007500003ACE45CCB6ADB0316D5CB6AF02797FACF
:10076000A7F703F0F003B7FA87F7C96AFB40AF12A7
:1007700097FAA7F701F47061B7FA87F7F9405B1CA5
:10078000B0FBF3F0891C4843B0FBF4F095FAA5F3F5
:1007900050434FF45011B3FA83F3D940715C914246
:1007A000BDD14008BBE70B485043B8E70000040543
:1007B000060708090000000D0102030405060708EA
:1007C000090A0B0C0D0E0F100010024040787D013D
:1007D00000127A0000093D002DE9F84F0446007828
:1007E000F74DC0074FF0010625D068687704C0F3C5
:1007F0008100012807D06868C0F3810002281BD15E
:100800006868C00318D597FAA7F0B0FA80F040F0F6
:100810002000400901D0286800E0686A97FAA7F133
:10082000B1FA81F101F01F0106FA01F108425ED030
:10083000A06800287BD05AE0A068B0F5803F0BD0BC
:1008400010B1B0F5A02F11D0286820F480302860B6
:10085000286820F4802002E0286840F48030286076
:10086000A06828B3FFF7A8FD80460BE0286840F495
:1008700080202860F0E700BFFFF79EFDA0EB080096
:10088000642870D897FAA7F0B0FA80F040F0200002
:10089000400901D0286800E0686A97FAA7F1B1FA28
:1008A00081F101F01F0106FA01F10842E4D01EE0D7
:1008B000FFF782FD804605E0FFF77EFDA0EB080014
:1008C0006428DED897FAA7F0B0FA80F040F0200054
:1008D000400901D0286800E0686A97FAA7F1B1FAE8
:1008E00081F101F01F0106FA01F10842E4D12078FC
:1008F000B44F80074FF002084FF000095AD56868DE
:100900004FF0F80B10F00C0F07D06868C0F38100AF
:1009100002281CD16868C00319D498FAA8F0B0FA6C
:1009200080F040F02000400902D0286801E08BE010
:10093000686A98FAA8F1B1FA81F101F01F0106FA8C
:1009400001F108422BD0606901287DD127E0606960
:1009500088B396FAA6F0B0FA80F047F82060FFF767
:100960002BFD824606E018E2FFF726FDA0EB0A0009
:10097000022886D898FAA8F0B0FA80F040F020005B
:10098000400901D0286800E0686A98FAA8F1B1FA35
:1009900081F101F01F0106FA01F10842E4D0286854
:1009A0009BFAABF2A169B2FA82F220F0F800914012
:1009B0000843286025E0FFE796FAA6F1B1FA81F135
:1009C00047F82190FFF7F8FC824605E0FFF7F4FCBA
:1009D000A0EB0A000228CCD898FAA8F0B0FA80F070
:1009E00040F02000400901D0286800E0686A98FAC9
:1009F000A8F1B1FA81F101F01F0106FA01F10842F4
:100A0000E4D1207800076FD5E069C0B396FAA6F06C
:100A1000B0FA80F007EB8000C0F88064FFF7CCFCF0
:100A2000824605E0FFF7C8FCA0EB0A000228A0D828
:100A300098FAA8F1B1FA81F141F060014046B6EBB5
:100A4000511F02D129680CE072E190FAA0F1B1FACD
:100A500081F141F06001B0EB511F01D1296A00E042
:100A6000696A98FAA8F0B0FA80F000F01F0206FA5E
:100A700002F00142D6D00120FFF7AEFB34E0FFE7E1
:100A800096FAA6F1B1FA81F107EB8101C1F88094E1
:100A9000FFF792FC824605E0FFF78EFCA0EB0A0010
:100AA000022898D898FAA8F1B1FA81F141F06001D2
:100AB0004046B6EB511F01D129680BE090FAA0F136
:100AC000B1FA81F141F06001B0EB511F01D1296A07
:100AD00000E0696A98FAA8F0B0FA80F000F01F020E
:100AE00006FA02F00142D7D12078400766D5E869BE
:100AF00040F08050E861E869DFF8CCB000F0805049
:100B00000090DBF8001041F48071CBF80010FFF783
:100B100053FC824606E000BFFFF74EFCA0EB0A0044
:100B2000642884D8DBF80000C005F5D520690128C9
:100B30000AD008B1052813D0286A20F001002862E5
:100B4000286A20F0040002E0286A40F001002862D0
:100B5000206941F2883B90B3FFF72EFC82460BE000
:100B6000286A40F004002862EEE700BFFFF724FC8B
:100B7000A0EB0A01594594D898FAA8F1B1FA81F18D
:100B800041F040014046B6EB511F01D129680BE00E
:100B900090FAA0F1B1FA81F141F04001B0EB511FA0
:100BA00001D1296A00E0696A98FAA8F0B0FA80F0E9
:100BB00000F01F0206FA02F00142D7D032E005E051
:100BC000001002400000424200700040FFF7F4FBBA
:100BD000824605E0FFF7F0FBA0EB0A015945A0D8DB
:100BE00098FAA8F1B1FA81F141F040014046B6EB24
:100BF000511F01D129680BE090FAA0F1B1FA81F1FF
:100C000041F04001B0EB511F01D1296A00E0696A4F
:100C100098FAA8F0B0FA80F000F01F0206FA02F08D
:100C20000142D7D1E16AA1B36868C00307D56868FB
:100C3000C0F38100022802D1E86AC00378D44FF0E3
:100C4000806002290FD0E96A21F48031E96290FACC
:100C5000A0F0B0FA80F047F82090FFF7ADFB804697
:100C60004FF0006A6CE02968C90005D5E96A626B3B
:100C700001F0F00191425BD1834690FAA0F0B0FA06
:100C800080F047F82090FFF797FB82464FF000680E
:100C900006E06AE0FFF790FBA0EB0A0064287CD82E
:100CA00098FAA8F0B0FA80F040F02000400901D096
:100CB000286800E0686A98FAA8F1B1FA81F101F0B9
:100CC0001F0106FA01F10842E4D1E86A616B20F0E5
:100CD000F0000843E862E86A216B20F47060084382
:100CE000E8629BFAABF0B0FA80F047F82060FFF7BB
:100CF00063FB824606E000BFFFF75EFBA0EB0A0045
:100D000064284AD898FAA8F0B0FA80F040F02000A1
:100D1000400901D0286800E0686A98FAA8F1B1FAA1
:100D200081F101F01F0106FA01F10842E4D01CE054
:100D300099E000BFFFF740FBA0EB080064282CD827
:100D40009AFAAAF0B0FA80F040F02000400901D0F1
:100D5000286800E0686A9AFAAAF1B1FA81F101F014
:100D60001F0106FA01F10842E4D1206AA0B36968C4
:100D7000C1F38101022976D04FF080714FF0007BE2
:100D800002280BD091FAA1F1B1FA81F147F8219034
:100D9000FFF712FB07465C466EE06AE091FAA1F0AD
:100DA0004A46B0FA80F08946BA4647F82020FFF755
:100DB00003FB80465F4605E0FFF7FEFAA0EB080064
:100DC000022856D897FAA7F0B0FA80F040F0200039
:100DD000400902D0286801E063E0686A97FAA7F149
:100DE000B1FA81F101F01F0106FA01F10842E3D1E5
:100DF000606AB0F5803F09D1E86A61680843E8623B
:100E0000E86AE16820F00F000843E862D4E90901CC
:100E10000843696821F474110843686099FAA9F0DD
:100E2000B0FA80F04AF82060FFF7C6FA044604E002
:100E3000FFF7C2FA001B02281BD897FAA7F0B0FAF6
:100E400080F040F02000400901D0286800E0686A86
:100E500097FAA7F1B1FA81F101F01F0106FA01F149
:100E60000842E5D01DE01EE0FFF7A6FAC01B0228ED
:100E700002D90320BDE8F88F94FAA4F0B0FA80F00C
:100E800040F02000400901D0286800E0686A94FA28
:100E9000A4F1B1FA81F101F01F0106FA01F1084253
:100EA000E2D10020E6E70120E4E7000010B50400ED
:100EB00003D094F8510010B104E0012010BD204689
:100EC00000F038F8022084F851002068016821F011
:100ED00040010160D4E901010843D4E90312114340
:100EE000084361690843218B01F400710843E169FB
:100EF0000843216A0843A16A084321680860A06981
:100F0000042101EA1040616A0843216848602168B1
:100F1000E06A08612068C16921F40061C161044987
:100F2000002008706065012084F85100002010BD89
:100F30000000002010B50068114986B088421CD11D
:100F40001048816941F48051816180690E4C00F440
:100F500080500490A0200090022001900320039074
:100F600069462046FFF744F900214020CDE9000101
:100F7000029169462046FFF73BF906B010BD00001C
:100F80000030014000100240000801402DE9F84304
:100F90000025DDF820800446ADF8005090F851009F
:100FA000012803D094F8510022287DD169B162B1A3
:100FB0005BB194F85000012876D0012684F8506087
:100FC00094F85100012803D005E00120BDE8F88322
:100FD000322084F851006565A263A387E38721630B
:100FE000A386E386A564E564A06A4FF40057B8427F
:100FF00009D12068016821F400510160206801686E
:1010000041F40051016020680168490603D4016879
:1010100041F040010160E0684FF48271B0F5006F6B
:10102000606807D0002867D088426ED1E08E012822
:1010300062D06AE020B188420CD1E08E012809D14B
:10104000206B21680088C860206B801C2063E08EC4
:10105000401EE086E08E80B9A06AB84244D1206884
:10106000016841F4805101603EE02068C068A16BD6
:101070000880A06B801CA0639EE0434600220221F2
:10108000204600F07DFD002874D1206B2168008887
:10109000C860206B801C2063E08E401E0004000CA2
:1010A000E08609D1A06A00E0C7E0B84204D1206818
:1010B000016841F48051016043460022012120462D
:1010C00000F05EFD00286FD12068C068A16B088029
:1010D000A06B801CA063E08F401EE087E08E00289C
:1010E000CBD1606800286AD1434600220121204606
:1010F00000F046FDF0BBB8E7206B411C216321687E
:101100000078C860E08E401EE086E08E98B9A06A44
:10111000B84204D12068016841F48051016043461F
:1011200000220121204600F02BFD18BB2068C0687A
:10113000A16B087040E0434600220221204600F0E7
:101140001FFDB8B9206B411C216321680078C8607D
:10115000E08E401E0004000CE08607D1A06AB84271
:1011600004D12068016841F48051016000224346A7
:10117000012100E018E0204600F002FDA0B920683F
:10118000C168A06B421CA2630170E08F401EE08723
:10119000E08E0028CFD1606888B943460022012143
:1011A000204600F0EDFC08B103200FE72068C1687D
:1011B000A06B421CA2630170E08F401EE087A06A12
:1011C000B84210D1434600220121204600F0D8FC4D
:1011D00018B1606D40F002000FE02068C068ADF803
:1011E0000000BDF80000434601228021204600F0A7
:1011F000C7FC20B1606D40F010006065D4E784F852
:101200005160A06AB84214D120688168C943C906F8
:101210000FD4616D41F002016165016821F4005154
:1012200001602068016841F40051016084F8505069
:10123000CBE684F850500020C8E60220C6E64FF006
:10124000E0210428086903D020F0040008617047F9
:1012500040F00400FAE7704710B5401EB0F1807FFF
:1012600001D3012010BD4FF0E02460610F21601711
:1012700000F034FC0020A06107202061002010BD98
:1012800010B5FFF7E8FF10BD30B590F83820012AFF
:1012900020D0012280F83820022380F839300368FA
:1012A0005C6824F070045C6003685C680D682C4323
:1012B0005C6003689C6824F080049C6003689C6800
:1012C00049680C439C6080F83920002180F8381070
:1012D000084630BD022030BD10B5040003D094F89C
:1012E000390010B107E0012010BD002084F838005B
:1012F000204600F00DF8022084F83900211D2068F6
:1013000000F008FD012084F83900002010BD000025
:1013100008B50068B0F1804F08D10548C16941F0B7
:101320000101C161C06900F00100009008BD00002A
:101330000010024070B5044690F83800012817D01C
:10134000012584F83850022084F83900206882682A
:1013500022F0770222F47F4282600868502837D05A
:101360000DDC202859D005DC88B3102841D151E08C
:10137000022070BD302853D040283AD13FE0602889
:101380002ED070280BD0B0F5805F03D0B0F5005F91
:101390002FD110E02068816821F0070115E0CB68AB
:1013A000D1E90121206800F0FAFC2168886840F04A
:1013B000770088601DE0CB68D1E90121206800F04A
:1013C000EEFC2068816841F48041816011E01EE0FC
:1013D000CA684968206800F097FD5021206806E03F
:1013E000CA684968206800F0A0FD6021206800F00C
:1013F000E0FC84F83950002084F8380070BDCA68D9
:101400004968206800F080FD40212068EFE7002156
:101410002068ECE710212068E9E720212068E6E752
:1014200030212068E3E700001FB50068B0F1804F6D
:1014300009D1042000900220019003200390694606
:101440000148FEF7D5FE1FBD0008014070B50446F7
:1014500090F838000D4601280DD0012684F8386038
:10146000022084F8390042B1042A18D0082A2AD070
:101470000C2A4DD139E0022070BD206800F0A2FC9A
:101480002068816941F0080181612068816921F04B
:1014900004018161206881692A69114311E0206893
:1014A00000F0B8FC2068816941F400618161206826
:1014B000816921F480618161206881692A6941EA3A
:1014C0000221816124E0206800F0D0FC2068C1691D
:1014D00041F00801C1612068C16921F00401C161C6
:1014E0002068C1692A69114311E0206800F0EAFC14
:1014F0002068C16941F40061C1612068C16921F4BB
:101500008061C1612068C1692A6941EA0221C16123
:1015100084F83960002084F8380070BD10B50400EC
:1015200003D094F8390010B107E0012010BD00206D
:1015300084F83800204600F00CF8022084F83900C6
:10154000211D206800F0E6FB012084F8390000200E
:1015500010BD704710B504460068012200F014FC6D
:1015600007492068884203D1416C41F4004141643D
:101570002068016841F001010160002010BD0000F9
:10158000002C014070B5040004D094F83900002507
:1015900010B106E0012070BD84F83850204600F0FC
:1015A00021F8022084F839002068C16821F4005134
:1015B000C160204600F0CCFC2068016921F4904114
:1015C00001612068416921F02A0141612068C168F8
:1015D00041F40051C160E563012084F83900002026
:1015E00070BD000010B50068134986B0884221D153
:1015F0001248C16941F40031C161C069104C00F466
:1016000000300490202000900220019003200390DD
:1016100069462046FEF7ECFD00214020CDE900019F
:10162000029169462046FEF7E3FD0648416841F015
:101630000801416006B010BD0044004000100240A7
:10164000001401400000014090F83930012B01D016
:10165000122B2CD139B332B390F83830012B26D06D
:10166000012380F8383081628285C2850021C16300
:1016700090F83920122A18D05FF0220280F8392021
:1016800080F838100168CA6842F48072CA60016844
:101690004A6942F001024A610068C16841F02001D4
:1016A000C16000207047012070473222E6E7022027
:1016B000704700002DE9F047044690F8390099463C
:1016C0000D46012801D0222858D12DB322B394F819
:1016D0003800012852D0012684F838600027E763DB
:1016E00094F8390022281AD05FF0120084F83900EB
:1016F000A284E2844FF48058E08C4B46401EE08484
:10170000A0684FF0000240454FF08001204613D101
:1017100000F0D6FC08BB04E00120BDE8F0873220D1
:10172000E4E728882168C0F308004860206908B110
:101730006D1C08E0AD1C06E000F0C2FC68B9216831
:1017400015F8010B4860E08C0028D5D14B460022EB
:101750004021204600F0B4FC08B10320DDE794F8F6
:101760003900322806D084F8396000BF84F8387018
:101770000020D2E7222084F83900F7E70220CCE7E6
:10178000FEE710B5142000F059F8800705D10321B9
:10179000BDE81040142000F073B810BD7CB50446BD
:1017A000002529460D2000F001F99320207020200B
:1017B000607001A823460090022219460C2000F018
:1017C0006BF8010009D1225C401C5540C0B20428CE
:1017D000F9D3205CA84200D0022108467CBD70B538
:1017E0000C46054600F02AF820EA04012846BDE828
:1017F000704000F0DBB810B500F03EF88D212A20D3
:1018000000F0D4F83E212B2000F0D0F81E212D202E
:1018100000F0CCF800212C2000F0C8F87021262020
:1018200000F0C4F84021152000F0C0F83D2111203F
:1018300000F0BCF8BDE81040FFF7A3BF7E2101EA2D
:10184000400040F0800000F06BB97CB50C460546C6
:1018500007210D2000F0AAF8257001A8234600906A
:10186000012219460C2000F017F818B9BDF8041031
:10187000102900D002207CBD0F21012000F096B875
:1018800070B50C460546FFF7D9FF40EA040128462B
:10189000BDE8704000F08AB82DE9FF5F00270226FE
:1018A000DDF838A015468B468146B8460C2805D091
:1018B000B9F10E0F05D11227102001E07727302053
:1018C000804647F08001022000F070F8802104205B
:1018D000FFF785FF80210A20FFF7D2FF00210120BA
:1018E00000F064F8002406E01BF80410092000F062
:1018F0005DF8641CA4B2AC42F6D34946012000F066
:1019000055F8B9F10C0F03D180210D20FFF7B8FF76
:101910004FF4FA650420FFF791FF6D1E2D04044675
:101920002D0C04D0E00702D114EA080FF2D0802178
:101930000D20FFF754FF35B10620FFF77FFF10F0B1
:101940001B0F04D0022604B03046BDE8F09F0026ED
:101950003C40E00700D00126B9F10C0FF3D10A207A
:10196000FFF76CFF04460C20FFF768FF10F007003C
:101970004FEAC40104D008390844AAF8000001E085
:10198000AAF8001024B1102C04D91024002503E07B
:101990000124FBE7002506E00920FFF74FFF03992C
:1019A00048556D1CADB2A542F6D3CCE77E2202EAC3
:1019B000400000F0CDB8000070B5164886B08169CF
:1019C00041F004018161816901F0040104918169A0
:1019D00041F0200181618069012400F02000049021
:1019E0000020CDE900400C4E694630460294FEF7D7
:1019F000FFFB48F210050220CDE900540390694630
:101A00003046FEF7F5FB002229463046FEF7CEFCB5
:101A100006B070BD00100240000801400E4810B52D
:101A20000C4901604FF48271416000218160C16006
:101A30004FF400720161C0E905121822C0E90721C4
:101A4000416281620A21C162FFF730FA002800D0AA
:101A5000FEE710BD003001407800002010B51D48A1
:101A60008EB04FF08041016040F28C510024C0E9FB
:101A7000011440F2E731C0E90314FFF72DFC00B177
:101A8000FEE74FF48050079007A91248FFF752FC79
:101A900000B1FEE70F48FFF741FD00B1FEE70B94F0
:101AA0000BA90C480C94FFF7EFFB00B1FEE7602098
:101AB000009040F2F310CDE9010408226946054880
:101AC0000494FFF7C3FC00B1FEE70248FFF7ACFC4B
:101AD0000EB010BDD0000020FEE770470907090EC8
:101AE000002806DA00F00F0000F1E02080F8141D55
:101AF000704700F1E02080F8001470477047000044
:101B00000EB501238DF804000A20009002AA01A955
:101B10000248FFF73BFA9DF808000EBD7800002050
:101B200070B50A4D0446002210212846FEF73EFCFF
:101B30002046FFF7E5FF0020FFF7E2FF0446012201
:101B400010212846FEF732FC204670BD00080140F7
:101B500070B50A4C0E460546002210212046FEF7BD
:101B600025FC2846FFF7CCFF3046FFF7C9FF20468B
:101B7000BDE8704001221021FEF718BC00080140AA
:101B80002DE9F0471D4690460E460446FEF714FC2C
:101B900007465FEA08004FF000084FF4005A4FF084
:101BA000010926D034E0681C23D025B1FEF704FCDF
:101BB000C01BA8421DD92068416821F0E0014160A6
:101BC0002068016821F040010160A06A504509D1F8
:101BD0002068016821F4005101602068016841F427
:101BE0000051016084F8519084F850800320BDE8D2
:101BF000F0872068806836EA0000D4D10DE0681CC8
:101C000006D0002DD7D0FEF7D7FBC01BA842D2D8F4
:101C10002068806836EA0000F1D00020E7E77047CE
:101C200010B5FEF7CFFBBDE81040FFF729BB000061
:101C300030B593B0012528040421CDE90201022426
:101C4000CDE908400095019005954FF4E010CDE9ED
:101C50000A044FF4C0600C9040200D906846FEF7D7
:101C6000BBFD00B1FEE70F20CDE90E0400204FF4CC
:101C70008061CDE91001129002210EA8FEF740FC10
:101C800000B1FEE7FEF700FD4FF47A71B0FBF1F012
:101C9000FFF7E2FA0420FFF7D2FA4FF0805090FAF3
:101CA000A0F00649B0FA80F041F820500022114619
:101CB000501EFEF7F3FB13B030BD0000000042429F
:101CC0001048016841F00101016041680E4A11406D
:101CD000416001680D4A11400160016821F48021D2
:101CE0000160416821F4FE014160016821F0A051CA
:101CF00001604FF47F0181600021C1620449C0038B
:101D000008607047001002400000FFF0FFFFF6FE81
:101D100008ED00E0F0B50268174B184C184D194E4D
:101D20004FF08047984207D0B84205D0A04203D078
:101D3000A84201D0B04204D122F0700C4A6842EAB5
:101D40000C02984207D0B84205D0A04203D0A84266
:101D500001D0B04203D122F44074CA682243026029
:101D60008A68C2620A688262984201D10969016385
:101D700001214161F0BD0000002C01400004004041
:101D800000080040000C004010B50123046A8B409D
:101D90009C430462036A8A401343036210BD10B57A
:101DA000846842EA032224F47F440A432243826087
:101DB00010BD826822F070020A4342F00701816080
:101DC0007047000030B5026A22F001020262026A26
:101DD0004368846924F073050C682C4322F00205E3
:101DE0008A682A430A4DA8420BD122F00805CA6826
:101DF00023F440732A434D6922F004021D438B698A
:101E00002B434360846149684163026230BD000036
:101E1000002C014030B5026A22F010020262026A10
:101E2000436884690D6824F4E64444EA05248D6817
:101E300022F0200242EA05120B4DA8420ED1CD68D5
:101E400022F0800242EA05124D6923F4406343EA1E
:101E500085038D6922F0400243EA85034360846173
:101E600049688163026230BD002C014030B5026ACE
:101E700022F480720262036A4268C46923F4007328
:101E800024F073050C682C438D6843EA05230C4D40
:101E9000A8420ED1CD6823F4006343EA05234D69BF
:101EA00022F4405242EA05128D6923F4806342EA2B
:101EB00005124260C4614968C163036230BD00001D
:101EC000002C014030B5026A22F480520262046A9A
:101ED0004268C3690D6823F4E64343EA05238D682D
:101EE00024F4005444EA0534064DA84204D14D6957
:101EF00022F4804242EA85124260C361496801646B
:101F0000046230BD002C014010B5036A046A24F05D
:101F100001040462846924F0F00444EA021423F00A
:101F20000A020A438461026210BD10B5036A23F0FD
:101F3000100303628369046A23F4704343EA0232A4
:101F400024F0A00343EA01118261016210BD000088
:101F50002DE9F041044600680169E26821F440512E
:101F6000114301612169A068084361690843216840
:101F7000CA6841F20C639A430243CA60206841690F
:101F8000A26921F44071114341614C4920686425E4
:101F9000322688423CD1FEF795FB00EBC00101EBF5
:101FA000001061688900B0FBF1F7FEF78BFB00EBD6
:101FB000C00101EB00106168B0468900B0FBF1F090
:101FC000B0FBF5F06FF01801484307EB800106EB1A
:101FD0000110B0FBF5F000F0F006FEF773FB00EB2C
:101FE000C00101EB001061688900B0FBF1F0B0FBAB
:101FF000F5F006EB0016FEF765FB00EBC00101EB08
:10200000001061688900B0FBF1F7FEF75BFB3BE075
:10201000FEF740FB00EBC00101EB00106168890096
:10202000B0FBF1F7FEF736FB00EBC00101EB00104F
:102030006168B0468900B0FBF1F0B0FBF5F06FF0DD
:102040001801484307EB800106EB0110B0FBF5F0E7
:1020500000F0F006FEF71EFB00EBC00101EB0010E4
:1020600061688900B0FBF1F0B0FBF5F006EB0016FB
:10207000FEF710FB00EBC00101EB00106168890066
:10208000B0FBF1F7FEF706FB00EBC00101EB00101F
:1020900061688900B0FBF1F0B0FBF5F06FF018015A
:1020A000484307EB800108EB0110B0FBF5F0216815
:1020B00000F00F0030448860BDE8F0810038014036
:1020C0002DE9F0471D4690460E460446FEF774F98A
:1020D00007465FEA08004FF000094FF0010808D0FA
:1020E00030E0681C05D095B1FEF766F9C01BA84228
:1020F0000DD82068006836EA0000F2D127E0681C9D
:1021000020D025B1FEF758F9C01BA8421AD9206883
:10211000C16821F08001C1602068C16821F0200100
:10212000C1602068C16821F48071C1602068416984
:1021300021F00101416184F8398084F8389003204E
:10214000BDE8F0872068006836EA0000D7D000209C
:10215000F6E7FEE702E008C8121F08C1002AFAD11C
:1021600070477047002001E001C1121F002AFBD117
:102170007047000070B5094D4FF40044002221461D
:102180002846FEF713F94FF49670FEF725F821461E
:102190002846BDE870400122FEF708B9000801405A
:1021A00070B50A4801220A4B0021817003F1100426
:1021B000C9B25D5C665CB54200D00022491CC9B260
:1021C00081701029F4D3D0B270BD00000C00002043
:1021D00056010020FEF7FEF8FFF72AFDFFF7ECFBA3
:1021E000FFF71CFC224821490C2201604FF4E13129
:1021F000416000218160C160C0E904128161C16158
:10220000FFF7C0F900B1FEE7FFF728FCFFF7F3FA8C
:1022100064233F2217491648FFF74CFA154901225B
:1022200008391348FFF710FA00F026F8114C0C3C5F
:102230000F4926205A31FFF708FB90B90C485A3055
:10224000FFF7ACFA68B9FFF7ABFF09496070642388
:1022500010225A310648FFF72DFA00F00DF800F071
:1022600029F80120FDF7B8FFE2E700000044004034
:102270000C0100201800002010B5FFF77BFF0A4872
:10228000FDF782FF094C2168C86308212046FFF74B
:1022900061F94FF47A70FDF79FFF0548FDF774FF71
:1022A0002168C86310BD0000CDCC4742D00000209B
:1022B00014CEC242074910B5074A00208870A2F127
:1022C0001003C0B2145C1C54401CC0B288701028AB
:1022D000F7D310BD0C0000206601002000000000B4
:1022E00000000000010203040607080900000000C6
:1022F00001020304142300080000002078000000FD
:10230000542100088C2300087800002000050000FC
:1023100064210008000000000000000000A24A0440
:1023200000000000000000000000000053544D3386
:102330003246313033204D69666172652052433533
:1023400032322052464944204361726420726561F2
:102350006465722031332E3536204D487A20666F01
:1023600072204B45494C2048414C0D0B0C0E0B0480
:102370000A090000000000000000000E060A01002B
:0C2380000509040000000000000000003F
:04000005080001519D
:00000001FF
