:020000040800F2
:100000003005002065010008CF16000855140008CF
:10001000CD160008AD010008FB1A00080000000022
:10002000000000000000000000000000131800089D
:10003000AF01000800000000F116000815180008C4
:100040007F0100087F0100087F0100087F01000890
:100050007F0100087F0100087F0100087F01000880
:100060007F0100087F0100087F0100087F01000870
:100070007F0100087F0100087F0100087F01000860
:100080007F0100087F0100087F0100087F01000850
:100090007F0100087F0100087F0100087F01000840
:1000A0007F0100087F0100087F0100087F01000830
:1000B0007F0100087F0100087F0100087F01000820
:1000C0007F0100087F0100087F0100087F01000810
:1000D0007F0100087F0100087F0100087F01000800
:1000E0007F0100087F0100087F0100080000000078
:1000F0000000000000000000000000000000000000
:1001000000000000000000007F0100087F010008DF
:100110007F0100087F0100087F0100087F010008BF
:100120007F0100087F0100087F0100087F010008AF
:100130007F0100087F0100087F0100087F0100089F
:100140007F0100087F0100087F0100087F0100088F
:10015000DFF80CD000F018F8004800475D1B0008DD
:10016000300500200648804706480047FEE7FEE7C6
:10017000FEE7FEE7FEE7FEE7FEE7FEE7FEE7FEE757
:10018000A518000851010008064C074D06E0E0687C
:1001900040F0010394E8070098471034AC42F6D3CE
:1001A000FFF7DAFF8C1D0008AC1D0008FEE7704762
:1001B00031B500F0EDF8044600F0EAF80099001BB4
:1001C0008842F9D338BD00002DE9F84FDFF890A13F
:1001D00000220AF1040B144601274FF00F090BF11E
:1001E000040E00BF0B6807FA04F52B40AB4274D134
:1001F000DFF870C14E68A6EB0C0866452BD00DDC0D
:10020000032E34D005DC36B3012E19D0022E2FD1A7
:100210001BE0112E16D0122E2AD119E0B8F5881F36
:1002200019D006DCB8F5803F15D0B8F5801F1FD176
:1002300011E0B8F5001F0ED0B8F5041F18D10AE080
:10024000CA6815E0CA68121D12E0CA6808320FE0D9
:10025000CA680C320CE08A682AB1012A4FF0080201
:1002600003D0456104E0042202E0056100E00022C1
:10027000FF2B01D8064601E000F104064FEA840591
:1002800001D9A5F12005D6F800C009FA05F82CEA35
:10029000080C02FA05F54CEA050CC6F800C04D68DA
:1002A000ED0057D5304DAE6946F00106AE61AD693F
:1002B00024F0030605F0010500952C4D06EB050C16
:1002C000DCF80850A6074FEA167809FA08F6B54395
:1002D000274EB04202D1002610E03BE0254EB0424E
:1002E00001D101260AE0244EB04201D1022605E0E8
:1002F000224EB04201D1032600E0042606FA08F699
:100300002E43CCF808604D68DAF80060ED035546DE
:1003100001D51E4300E09E432E604D68DBF800606F
:10032000AD035D4601D51E4300E09E432E604D683F
:10033000DEF80060ED02754601D51E4300E09E43E5
:100340002E604D68AD020E4D2E6801D51E4300E0B3
:100350009E432E60641C102CFFF444AFBDE8F88F60
:100360000004014000001110001002400000014094
:1003700000080140000C0140001001400014014041
:100380000C0401400AB1016170470904FBE7000059
:10039000014800687047000004000020024801681E
:1003A000491C01607047000004000020074810B598
:1003B000016841F010010160032000F07BF800208B
:1003C00000F006F800F016F8002010BD00200240F2
:1003D00010B5044600F044F94FF47A71B0FBF1F027
:1003E00000F022FF00222146501E00F043F80020BA
:1003F00010BD00001D4808B5816941F0010181610F
:10040000806900F001000090032000F053F8002202
:1004100011466FF00B0000F02DF8002211466FF02E
:100420000A0000F027F8002211466FF0090000F0E2
:1004300021F800221146501F00F01CF8002211463E
:10044000101F00F017F800221146901E00F012F85D
:1004500000221146501E00F00DF80548416821F0B9
:10046000E06141F08061416008BD00000010024081
:1004700000000140F0B40E4B1B680C46C3F302238E
:10048000C3F10705042D00D90425191D072901D240
:10049000002300E0DB1E012606FA05F1491E21407B
:1004A00099409E40761E16403143F0BC01F010B9D1
:1004B0000CED00E0064900F0070208684FF6FF0364
:1004C000184040EA0220034A1043086070470000C9
:1004D0000CED00E00000FA052DE9F047DFF870812F
:1004E00005460E46D8F8000000F00700B0420CD2D6
:1004F000D8F8001021F007013143C8F80010D8F8EF
:10050000000000F00700B04277D12878514C8007F6
:1005100005D56068A96820F0F0000843606028787D
:10052000C00759D06968012001290DD0022929D0BE
:100530005FF0020393FAA3F2B2FA82F242F02002D1
:10054000520904D0226803E04FF40033F2E7626AF4
:1005500093FAA3F3B3FA83F303F01F039840024224
:100560004BD0606820F0030008436060FFF710FF85
:100570006968074641F2883001290DD00229814679
:1005800017D025E04FF00073D4E700BFFFF700FF5E
:10059000C11B494501D918E081466068C0F381005C
:1005A0000128F3D118E000BFFFF7F2FEC11B494557
:1005B0000BD86068C0F381000228F5D10CE000BFC1
:1005C000FFF7E6FEC11B494502D90320BDE8F087CD
:1005D000606810F00C0FF3D1D8F80010404601F01D
:1005E0000701B1420BD9016821F0070131430160D5
:1005F000006800F00700B04201D00120E6E728784B
:10060000400705D56068E96820F4E0600843606051
:100610002878000706D56068296920F4605040EA10
:10062000C100606000F052F86168F02292FAA2F214
:1006300001F0F001B2FA82F2D140074A515CC840A1
:10064000064908600020FFF7C3FE0020BEE7000057
:100650000020024000100240641D00080800002035
:100660000148006870470000080000200848094958
:10067000006849684FF4E06292FAA2F201F4E06186
:10068000B2FA82F2D140044A515CC840704700007F
:100690000800002000100240741D000808480949A5
:1006A000006849684FF4605292FAA2F201F4605176
:1006B000B2FA82F2D140044A515CC840704700004F
:1006C0000800002000100240741D0008F0B52CA2A4
:1006D0008AB007CA8DE807002CA103AC0FC984E8D3
:1006E0000F002E494B682E4803F00C02042A42D01A
:1006F000082A40D14FF4701595FAA5F403F470124E
:10070000B4FA84F4E2406E461DF80220DB0334D5CF
:10071000CB6A0F2494FAA4F403F00F03B4FA84F420
:10072000E34003ACE45CCB6ADB0316D5CB6AF0276D
:1007300097FAA7F703F0F003B7FA87F7C96AFB4007
:10074000AF1297FAA7F701F47061B7FA87F7F9408B
:100750005B1CB0FBF3F0891C4843B0FBF4F095FA46
:10076000A5F350434FF45011B3FA83F3D940715CB1
:10077000914200D140080AB0F0BD0A485043FAE760
:1007800000000405060708090000000D010203042B
:1007900005060708090A0B0C0D0E0F100010024089
:1007A00000127A0000093D002DE9F84F0446007858
:1007B000F74DC0074FF0010625D068687704C0F3F5
:1007C0008100012807D06868C0F3810002281BD18E
:1007D0006868C00318D597FAA7F0B0FA80F040F027
:1007E0002000400901D0286800E0686A97FAA7F164
:1007F000B1FA81F101F01F0106FA01F108425ED061
:10080000A06800287BD05AE0A068B0F5803F0BD0EC
:1008100010B1B0F5A02F11D0286820F480302860E6
:10082000286820F4802002E0286840F480302860A6
:10083000A06828B3FFF7ACFD80460BE0286840F4C1
:1008400080202860F0E700BFFFF7A2FDA0EB0800C2
:10085000642870D897FAA7F0B0FA80F040F0200032
:10086000400901D0286800E0686A97FAA7F1B1FA58
:1008700081F101F01F0106FA01F10842E4D01EE007
:10088000FFF786FD804605E0FFF782FDA0EB08003C
:100890006428DED897FAA7F0B0FA80F040F0200084
:1008A000400901D0286800E0686A97FAA7F1B1FA18
:1008B00081F101F01F0106FA01F10842E4D120782C
:1008C000B44F80074FF002084FF000095AD568680E
:1008D0004FF0F80B10F00C0F07D06868C0F38100E0
:1008E00002281CD16868C00319D498FAA8F0B0FA9D
:1008F00080F040F02000400902D0286801E08BE041
:10090000686A98FAA8F1B1FA81F101F01F0106FABC
:1009100001F108422BD0606901287DD127E0606990
:1009200088B396FAA6F0B0FA80F047F82060FFF797
:100930002FFD824606E018E2FFF72AFDA0EB0A0031
:10094000022886D898FAA8F0B0FA80F040F020008B
:10095000400901D0286800E0686A98FAA8F1B1FA65
:1009600081F101F01F0106FA01F10842E4D0286884
:100970009BFAABF2A169B2FA82F220F0F800914042
:100980000843286025E0FFE796FAA6F1B1FA81F165
:1009900047F82190FFF7FCFC824605E0FFF7F8FCE2
:1009A000A0EB0A000228CCD898FAA8F0B0FA80F0A0
:1009B00040F02000400901D0286800E0686A98FAF9
:1009C000A8F1B1FA81F101F01F0106FA01F1084224
:1009D000E4D1207800076FD5E069C0B396FAA6F09D
:1009E000B0FA80F007EB8000C0F88064FFF7D0FC1D
:1009F000824605E0FFF7CCFCA0EB0A000228A0D855
:100A000098FAA8F1B1FA81F141F060014046B6EBE5
:100A1000511F02D129680CE072E190FAA0F1B1FAFD
:100A200081F141F06001B0EB511F01D1296A00E072
:100A3000696A98FAA8F0B0FA80F000F01F0206FA8E
:100A400002F00142D6D00120FFF7B2FB34E0FFE70D
:100A500096FAA6F1B1FA81F107EB8101C1F8809411
:100A6000FFF796FC824605E0FFF792FCA0EB0A0038
:100A7000022898D898FAA8F1B1FA81F141F0600102
:100A80004046B6EB511F01D129680BE090FAA0F166
:100A9000B1FA81F141F06001B0EB511F01D1296A37
:100AA00000E0696A98FAA8F0B0FA80F000F01F023E
:100AB00006FA02F00142D7D12078400766D5E869EE
:100AC00040F08050E861E869DFF8CCB000F0805079
:100AD0000090DBF8001041F48071CBF80010FFF7B4
:100AE00057FC824606E000BFFFF752FCA0EB0A006D
:100AF000642884D8DBF80000C005F5D520690128FA
:100B00000AD008B1052813D0286A20F00100286215
:100B1000286A20F0040002E0286A40F00100286200
:100B2000206941F2883B90B3FFF732FC82460BE02C
:100B3000286A40F004002862EEE700BFFFF728FCB7
:100B4000A0EB0A01594594D898FAA8F1B1FA81F1BD
:100B500041F040014046B6EB511F01D129680BE03E
:100B600090FAA0F1B1FA81F141F04001B0EB511FD0
:100B700001D1296A00E0696A98FAA8F0B0FA80F019
:100B800000F01F0206FA02F00142D7D032E005E081
:100B9000001002400000424200700040FFF7F8FBE6
:100BA000824605E0FFF7F4FBA0EB0A015945A0D807
:100BB00098FAA8F1B1FA81F141F040014046B6EB54
:100BC000511F01D129680BE090FAA0F1B1FA81F12F
:100BD00041F04001B0EB511F01D1296A00E0696A80
:100BE00098FAA8F0B0FA80F000F01F0206FA02F0BE
:100BF0000142D7D1E16AA1B36868C00307D568682C
:100C0000C0F38100022802D1E86AC00378D44FF013
:100C1000806002290FD0E96A21F48031E96290FAFC
:100C2000A0F0B0FA80F047F82090FFF7B1FB8046C3
:100C30004FF0006A6CE02968C90005D5E96A626B6B
:100C400001F0F00191425BD1834690FAA0F0B0FA36
:100C500080F047F82090FFF79BFB82464FF000683A
:100C600006E06AE0FFF794FBA0EB0A0064287CD85A
:100C700098FAA8F0B0FA80F040F02000400901D0C6
:100C8000286800E0686A98FAA8F1B1FA81F101F0E9
:100C90001F0106FA01F10842E4D1E86A616B20F015
:100CA000F0000843E862E86A216B20F470600843B2
:100CB000E8629BFAABF0B0FA80F047F82060FFF7EB
:100CC00067FB824606E000BFFFF762FBA0EB0A006D
:100CD00064284AD898FAA8F0B0FA80F040F02000D2
:100CE000400901D0286800E0686A98FAA8F1B1FAD2
:100CF00081F101F01F0106FA01F10842E4D01CE085
:100D000099E000BFFFF744FBA0EB080064282CD853
:100D10009AFAAAF0B0FA80F040F02000400901D021
:100D2000286800E0686A9AFAAAF1B1FA81F101F044
:100D30001F0106FA01F10842E4D1206AA0B36968F4
:100D4000C1F38101022976D04FF080714FF0007B12
:100D500002280BD091FAA1F1B1FA81F147F8219064
:100D6000FFF716FB07465C466EE06AE091FAA1F0D9
:100D70004A46B0FA80F08946BA4647F82020FFF785
:100D800007FB80465F4605E0FFF702FBA0EB08008B
:100D9000022856D897FAA7F0B0FA80F040F0200069
:100DA000400902D0286801E063E0686A97FAA7F179
:100DB000B1FA81F101F01F0106FA01F10842E3D115
:100DC000606AB0F5803F09D1E86A61680843E8626B
:100DD000E86AE16820F00F000843E862D4E90901FD
:100DE0000843696821F474110843686099FAA9F00E
:100DF000B0FA80F04AF82060FFF7CAFA044604E02F
:100E0000FFF7C6FA001B02281BD897FAA7F0B0FA22
:100E100080F040F02000400901D0286800E0686AB6
:100E200097FAA7F1B1FA81F101F01F0106FA01F179
:100E30000842E5D01DE01EE0FFF7AAFAC01B022819
:100E400002D90320BDE8F88F94FAA4F0B0FA80F03C
:100E500040F02000400901D0286800E0686A94FA58
:100E6000A4F1B1FA81F101F01F0106FA01F1084283
:100E7000E2D10020E6E70120E4E7000010B504001D
:100E800003D094F8510010B104E0012010BD2046B9
:100E900000F038F8022084F851002068016821F041
:100EA00040010160D4E901010843D4E90312114370
:100EB000084361690843218B01F400710843E1692B
:100EC0000843216A0843A16A084321680860A069B1
:100ED000042101EA1040616A0843216848602168E2
:100EE000E06A08612068C16921F40061C1610449B8
:100EF000002008706065012084F85100002010BDBA
:100F00000000002010B50068114986B088421CD14D
:100F10001048816941F48051816180690E4C00F470
:100F200080500490A02000900220019003200390A4
:100F300069462046FFF748F900214020CDE900012D
:100F4000029169462046FFF73FF906B010BD000048
:100F50000030014000100240000801402DE9F84334
:100F60000025DDF820800446ADF8005090F85100CF
:100F7000012803D094F8510022287DD169B162B1D3
:100F80005BB194F85000012876D0012684F85060B7
:100F900094F85100012803D005E00120BDE8F88352
:100FA000322084F851006565A263A387E38721633B
:100FB000A386E386A564E564A06A4FF40057B842AF
:100FC00009D12068016821F400510160206801689E
:100FD00041F40051016020680168490603D40168AA
:100FE00041F040010160E0684FF48271B0F5006F9C
:100FF000606807D0002867D088426ED1E08E012853
:1010000062D06AE020B188420CD1E08E012809D17B
:10101000206B21680088C860206B801C2063E08EF4
:10102000401EE086E08E80B9A06AB84244D12068B4
:10103000016841F4805101603EE02068C068A16B06
:101040000880A06B801CA0639EE043460022022122
:10105000204600F08FFB002874D1206B21680088A7
:10106000C860206B801C2063E08E401E0004000CD2
:10107000E08609D1A06A00E0C7E0B84204D1206848
:10108000016841F48051016043460022012120465D
:1010900000F070FB00286FD12068C068A16B088049
:1010A000A06B801CA063E08F401EE087E08E0028CC
:1010B000CBD1606800286AD1434600220121204636
:1010C00000F058FBF0BBB8E7206B411C216321689E
:1010D0000078C860E08E401EE086E08E98B9A06A75
:1010E000B84204D12068016841F480510160434650
:1010F00000220121204600F03DFB18BB2068C0689B
:10110000A16B087040E0434600220221204600F017
:1011100031FBB8B9206B411C216321680078C8609D
:10112000E08E401E0004000CE08607D1A06AB842A1
:1011300004D12068016841F48051016000224346D7
:10114000012100E018E0204600F014FBA0B920685F
:10115000C168A06B421CA2630170E08F401EE08753
:10116000E08E0028CFD1606888B943460022012173
:10117000204600F0FFFA08B103200FE72068C1689D
:10118000A06B421CA2630170E08F401EE087A06A42
:10119000B84210D1434600220121204600F0EAFA6D
:1011A00018B1606D40F002000FE02068C068ADF833
:1011B0000000BDF80000434601228021204600F0D7
:1011C000D9FA20B1606D40F010006065D4E784F872
:1011D0005160A06AB84214D120688168C943C90629
:1011E0000FD4616D41F002016165016821F4005185
:1011F00001602068016841F40051016084F850509A
:10120000CBE684F850500020C8E60220C6E64FF036
:10121000E0210428086903D020F004000861704729
:1012200040F00400FAE7704710B5401EB0F1807F2F
:1012300001D3012010BD4FF0E02460610F21601741
:1012400000F046FA0020A06107202061002010BDB8
:1012500010B5FFF7E8FF10BD70B5040004D094F896
:101260003900002510B106E0012070BD84F8385027
:10127000204600F021F8022084F839002068C16877
:1012800021F40051C160204600F036FB206801695E
:1012900021F4904101612068416921F02A014161F6
:1012A0002068C16841F40051C160E563012084F801
:1012B0003900002070BD000010B50068134986B0E9
:1012C000884221D11248C16941F40031C161C0692D
:1012D000104C00F400300490202000900220019077
:1012E0000320039069462046FEF76EFF0021402050
:1012F000CDE90001029169462046FEF765FF0648E8
:10130000416841F00801416006B010BD0044004052
:1013100000100240001401400000014090F83930F4
:10132000012B01D0122B2CD139B332B390F83830C5
:10133000012B26D0012380F8383081628285C28556
:101340000021C16390F83920122A18D05FF02202E0
:1013500080F8392080F838100168CA6842F4807239
:10136000CA6001684A6942F001024A610068C168C6
:1013700041F02001C16000207047012070473222F7
:10138000E6E70220704700002DE9F047044690F898
:10139000390099460D46012801D0222858D12DB395
:1013A00022B394F83800012852D0012684F838601E
:1013B0000027E76394F8390022281AD05FF0120062
:1013C00084F83900A284E2844FF48058E08C4B46C4
:1013D000401EE084A0684FF0000240454FF08001BD
:1013E000204613D100F040FB08BB04E00120BDE81B
:1013F000F0873220E4E728882168C0F308004860BD
:10140000206908B16D1C08E0AD1C06E000F02CFB63
:1014100068B9216815F8010B4860E08C0028D5D127
:101420004B4600224021204600F01EFB08B103205D
:10143000DDE794F83900322806D084F8396000BF1F
:1014400084F838700020D2E7222084F83900F7E7CA
:101450000220CCE7FEE710B5142000F059F8800711
:1014600005D10321BDE81040142000F073B810BD71
:101470007CB50446002529460D2000F001F9932093
:1014800020702020607001A8234600900222194697
:101490000C2000F06BF8010009D1225C401C554083
:1014A000C0B20428F9D3205CA84200D0022108462B
:1014B0007CBD70B50C46054600F02AF820EA040110
:1014C0002846BDE8704000F0DBB810B500F03EF8EB
:1014D0008D212A2000F0D4F83E212B2000F0D0F8F6
:1014E0001E212D2000F0CCF800212C2000F0C8F89F
:1014F0007021262000F0C4F84021152000F0C0F82B
:101500003D21112000F0BCF8BDE81040FFF7A3BF5B
:101510007E2101EA400040F0800000F0FBB87CB57D
:101520000C46054607210D2000F0AAF8257001A8F9
:1015300023460090012219460C2000F017F818B934
:10154000BDF80410102900D002207CBD0F2101201D
:1015500000F096B870B50C460546FFF7D9FF40EA93
:1015600004012846BDE8704000F08AB82DE9FF5F0D
:1015700000270226DDF838A015468B468146B8467E
:101580000C2805D0B9F10E0F05D11227102001E06B
:1015900077273020804647F08001022000F070F865
:1015A00080210420FFF785FF80210A20FFF7D2FF6A
:1015B0000021012000F064F8002406E01BF804106C
:1015C000092000F05DF8641CA4B2AC42F6D3494691
:1015D000012000F055F8B9F10C0F03D180210D2046
:1015E000FFF7B8FF4FF4FA650420FFF791FF6D1E77
:1015F0002D0404462D0C04D0E00702D114EA080F94
:10160000F2D080210D20FFF754FF35B10620FFF7FF
:101610007FFF10F01B0F04D0022604B03046BDE857
:10162000F09F00263C40E00700D00126B9F10C0FE6
:10163000F3D10A20FFF76CFF04460C20FFF768FF88
:1016400010F007004FEAC40104D008390844AAF892
:10165000000001E0AAF8001024B1102C04D91024D5
:10166000002503E00124FBE7002506E00920FFF741
:101670004FFF039948556D1CADB2A542F6D3CCE798
:101680007E2202EA400000F05DB800000E4810B56E
:101690000C4901604FF48271416000218160C1609A
:1016A0004FF400720161C0E905121822C0E9072158
:1016B000416281620A21C162FFF7E0FB002800D08D
:1016C000FEE710BD0030014078000020FEE77047C3
:1016D0000907090E002806DA00F00F0000F1E020EB
:1016E00080F8141D704700F1E02080F80014704766
:1016F000704700000EB501238DF804000A20009009
:1017000002AA01A90248FFF729FC9DF808000EBDB6
:101710007800002070B50A4D0446002210212846AA
:10172000FEF730FE2046FFF7E5FF0020FFF7E2FF5F
:101730000446012210212846FEF724FE204670BDF3
:101740000008014070B50A4C0E46054600221021E3
:101750002046FEF717FE2846FFF7CCFF3046FFF77E
:10176000C9FF2046BDE8704001221021FEF70ABEE5
:10177000000801402DE9F0471D4690460E460446FC
:10178000FEF706FE07465FEA08004FF000084FF438
:10179000005A4FF0010926D034E0681C23D025B14F
:1017A000FEF7F6FDC01BA8421DD92068416821F054
:1017B000E00141602068016821F040010160A06AF9
:1017C000504509D12068016821F40051016020686A
:1017D000016841F40051016084F8519084F8508010
:1017E0000320BDE8F0872068806836EA0000D4D185
:1017F0000DE0681C06D0002DD7D0FEF7C9FDC01B38
:10180000A842D2D82068806836EA0000F1D00020D3
:10181000E7E7704710B5FEF7C1FDBDE81040FFF7E0
:1018200017BD000070B594B002250024CDE9005426
:10183000012610200895CDE905604FF4C010CDE9D0
:10184000094068460B94FEF7AFFF00B1FEE70F209A
:10185000CDE90E059020CDE9100400210EA81294C8
:10186000FEF73AFE00B1FEE7FEF7FAFE4FF47A719A
:10187000B0FBF1F0FFF7D8FC0420FFF7C8FC4FF0F5
:10188000805090FAA0F00649B0FA80F041F820604C
:1018900000221146501EFEF7EDFD14B070BD000091
:1018A000000042421048016841F0010101604168B6
:1018B0000E4A1140416001680D4A11400160016803
:1018C00021F480210160416821F4FE01416001683A
:1018D00021F0A05101604FF47F0181600021C162BD
:1018E0000449C00308607047001002400000FFF088
:1018F000FFFFF6FE08ED00E02DE9F0410446006828
:101900000169E26821F44051114301612169A06835
:101910000843616908432168CA6841F20C639A432D
:101920000243CA6020684169A26921F440711143F1
:1019300041614C4920686425322688423CD1FEF73B
:10194000ADFE00EBC00101EB001061688900B0FB47
:10195000F1F7FEF7A3FE00EBC00101EB0010616898
:10196000B0468900B0FBF1F0B0FBF5F06FF0180164
:10197000484307EB800106EB0110B0FBF5F000F0E7
:10198000F006FEF78BFE00EBC00101EB0010616872
:101990008900B0FBF1F0B0FBF5F006EB0016FEF7A6
:1019A0007DFE00EBC00101EB001061688900B0FB17
:1019B000F1F7FEF773FE3BE0FEF758FE00EBC001C7
:1019C00001EB001061688900B0FBF1F7FEF74EFEF5
:1019D00000EBC00101EB00106168B0468900B0FB6C
:1019E000F1F0B0FBF5F06FF01801484307EB800110
:1019F00006EB0110B0FBF5F000F0F006FEF736FE46
:101A000000EBC00101EB001061688900B0FBF1F050
:101A1000B0FBF5F006EB0016FEF728FE00EBC00168
:101A200001EB001061688900B0FBF1F7FEF71EFEC4
:101A300000EBC00101EB001061688900B0FBF1F020
:101A4000B0FBF5F06FF01801484307EB800108EB9D
:101A50000110B0FBF5F0216800F00F003044886001
:101A6000BDE8F081003801402DE9F0471D46904661
:101A70000E460446FEF78CFC07465FEA08004FF06E
:101A800000094FF0010808D030E0681C05D095B17E
:101A9000FEF77EFCC01BA8420DD82068006836EA1D
:101AA0000000F2D127E0681C20D025B1FEF770FCC1
:101AB000C01BA8421AD92068C16821F08001C1600A
:101AC0002068C16821F02001C1602068C16821F44C
:101AD0008071C1602068416921F00101416184F891
:101AE000398084F838900320BDE8F08720680068CA
:101AF00036EA0000D7D00020F6E7FEE702E008C88B
:101B0000121F08C1002AFAD170477047002001E077
:101B100001C1121F002AFBD1704700001FB50AA4A3
:101B200010281ECC8DE81E000B4A694602D23023D5
:101B3000137005E001EB101300F00F001B78137019
:101B4000085C50701FBD00003031323334353637F9
:101B500038394142434445461001002086B0FEF723
:101B600025FCFFF75FFE7948816941F0040181613E
:101B7000816901F004010491816941F020018161D2
:101B80008069734C00F02000049000221021204650
:101B9000FEF7F8FB10204FF0010ACDE9000A022001
:101BA000039069462046FEF70FFBFFF76FFD6A4F73
:101BB0006848002638604FF4E130C7E901060C2080
:101BC000FE60C7E90460BE613846FE61FFF744FB72
:101BD00000B1FEE7FFF779FC64233F225F495E48CE
:101BE000FFF7D2FB5D49012208395B48FFF796FBFE
:101BF000DFF8689109F13F09A9F15A0404F1070BD4
:101C0000554926204A31FFF78AFC00286FD15248F7
:101C10004A30FFF72DFC002869D16670E670092074
:101C2000A0704F4884F804A00FC88DE80F0064230B
:101C3000102269464848FFF7A7FB2670464862789D
:101C40004A30254659462B7811F803C010F8038016
:101C5000C44500D001225B1CDBB22B70042BF2D3F5
:101C60006A70EAB32A79DAB3EE702E712E702A7890
:101C7000835C8B54521CD2B22A70042AF7D32E7084
:101C80008046297818F80100FFF748FF3249A87804
:101C900040310A7809F80020401CC0B2497809F8A0
:101CA0000010401CA8702878401CC0B2287004287E
:101CB000E7D32A49642312223F312748FFF764FB08
:101CC000264A85F805A050462E70103A297809EB6F
:101CD000010312F801C05B7A634500D0002000E0E8
:101CE00005E0491CC9B229700829EFD368716079F1
:101CF000012800D16671F88D90B91848083800782D
:101D0000A071312806D11549642312223F311248AF
:101D1000FFF73AFB1149012208390F48FFF7FEFA95
:101D2000E078401C10F0FF00E0700AD184F804A0B5
:101D30002670594620780E54401CC0B220700428EA
:101D4000F8D30520FEF734FA5AE7000000100240ED
:101D50000008014000440040D0000020270000207F
:101D60007C1D0008000000000000000001020304C8
:101D700006070809000000000102030444657465B9
:101D800063746564210A000000000000AC1D0008B7
:101D90000000002078000000FC1A0008241E000843
:101DA00078000020B80400000C1B000800000000B0
:101DB0000000000000A24A04000000000000000033
:101DC0000000003943353541314235000000000044
:101DD00000000053544D333246313033204D696694
:101DE00061726520524335323220524649442043C5
:101DF000617264207265616465722031332E3536FC
:101E0000204D487A20666F72204B45494C2048414E
:101E10004C0D436172642049443A203030303030F8
:041E20003030300D21
:04000005080001519D
:00000001FF
